:10000000400800202501000021010000210100001E
:1000100000000000000000000000000000000000E0
:1000200000000000000000000000000021010000AE
:10003000000000000000000021010000210100007C
:100040002101000021010000210100002101000028
:100050002101000021010000210100002101000018
:100060002101000021010000210100002101000008
:1000700021010000210100002101000021010000F8
:1000800021010000210100002101000021010000E8
:1000900021010000210100002101000021010000D8
:1000A00021010000210100002101000021010000C8
:1000B0000000000010B5064C2378002B07D1054B3B
:1000C000002B02D0044800E000BF0123237010BDC4
:1000D00000000020000000009C0D0000084B10B53F
:1000E000002B03D00749084800E000BF0748036819
:1000F000002B00D110BD064B002BFBD09847F9E731
:1001000000000000040000209C0D00009C0D000079
:100110000000000010B5014B984710BD6D020000B3
:10012000FEE7000010B51A4A1A4B9A4211D01A0085
:10013000194B9A420DD2194A03339B1A9B0801337B
:100140009B000022134812498C58845004329A4272
:10015000FAD1134A134B9A420AD2D34311495B187E
:1001600003218B4304339B18002102C29342FCD12C
:100170000D4AFF210D4B8B4393600D4A53687F3925
:100180000B4353600B4B98470B4B9847FEE7C04619
:100190009C0D000000000020000000200400002052
:1001A000000000204000002000ED00E00000000002
:1001B00000400041D10C0000590C000070B5124BFA
:1001C000DE20195C042291431954195C0125A943CE
:1001D00001242143C9B219541F38195C0F26B143B9
:1001E0000C3E31431954DF215E5C96435E545A5CE9
:1001F000AA432243D2B25A541A5CD0390A40213160
:100200000A431A5470BDC04600280040064B4021E6
:10021000E02299500331043A9950044A136A413953
:100220000B4313627047C0460018004000040040B2
:1002300010B5044B984704490448054B9847054BB3
:10024000984710BD0D02000000040043200000206C
:100250001D030000BD01000010B50248024B984785
:1002600010BDC04610E000E08902000010B5034B4D
:100270009847034B9847034B984710BDFD03000078
:10028000310200005902000010B5024B1860024B09
:10029000984710BD1C000020F10B000010B5044B66
:1002A0001C68044B984701002000034B984710BD81
:1002B0001C000020F5030000050C000010B584B000
:1002C000140001AB1438828B1A800294054A5A80BC
:1002D00003911900044B9847002800D1200004B076
:1002E00010BDC0460080FFFFB906000010B584B005
:1002F000140001AB1438828B1A800294054A5A808C
:1003000003911900044B9847002800D1200004B045
:1003100010BDC0460180FFFFB906000070B50400A3
:100320000D00431E9841C0B25E220749074B984713
:1003300029002000064B9847002803D1054BA361F4
:10034000054B636170BDC046180D0000ED03000051
:1003500005060000ED020000BD02000010B5014BD3
:10036000984710BD350600008905890D8023DB0004
:100370001A400A438283100070471430086000203E
:100380007047000070B506000C00150000280DD065
:100390000800431E9841C0B234220549054B9847D6
:1003A00033682A0021003000984770BD0020F3E731
:1003B000340D0000ED03000070B506000C001500C0
:1003C00000280DD00800431E9841C0B23D220549C7
:1003D000054B984773682A0021003000984770BD8C
:1003E0000020F3E7340D0000ED030000002800D1E9
:1003F00000BE7047FA231B015843704710B5094BE4
:100400005A685A600220084B9847084B9847084B97
:100410009847084B9847084B9847FF20074B984749
:1004200010BDC04600400041CB040000790400002C
:100430009104000065040000C904000041040000AC
:10044000C30707D5044A054B1A621900044A4B68D2
:100450001342FCD17047C04606010100001800405D
:10046000FD070000034B08229A71043A5A71033ABF
:100470001A71704700040040044BDA69F821490101
:100480000A40DA6101221A617047C046001000403C
:1004900082220C4B1A7518003821803A435C1342B3
:1004A000FCD108491022CB681A42FCD0054A137DC2
:1004B00080210B431375100048390E22435C134210
:1004C000FCD17047000C004070478023DB059B780F
:1004D0000322134098420CD08022D205FF2393714F
:1004E000937803218B430840184390709379002B35
:1004F000FCD0704710B5084A002390420AD0800310
:10050000000E052806D0054A05490020054B9847EE
:1005100001235B42180010BD000400439B03000050
:10052000600D0000ED03000070B505000C00080030
:10053000314B9847C0B2E369DB0721D443001B1855
:10054000DB002E4AD31859681C2319400322E369A3
:100550001A42FCD123689B070BD5236802229343E0
:1005600023600132E3691A42FCD10222E3691A4294
:10057000FCD101230B4323600322E3691A42FCD11F
:100580000122E3691A42FCD143001B18DB001B4A1D
:10059000D318596821600322E3691A42FCD1430051
:1005A0001B18DB00154AD3189B6863600422E369BB
:1005B0001A42FCD143001B18DB00104AD318DB6839
:1005C000E3608901890FA981636A0D4E1E400123F2
:1005D0008B429B415B429B03334363620422E3698A
:1005E0001A42FCD143001818C000044B1818438A63
:1005F000EB81002070BDC046F5040000480D0000EE
:10060000FFBFFFFF70B504000D00431E9841C0B24C
:10061000044A0549054B9847256129002000044BF1
:10062000984770BD0A050000600D0000ED03000052
:100630002905000070B504001A4D431E9841C0B250
:10064000194A2900194EB04724692000431E9841D9
:10065000C0B2174A2900B04723680222134323601F
:100660000132E3691A42FCD104250422032010263A
:100670001049E3691A42FCD1638B1B090340012B2B
:100680000AD001390029F4D1013D002D06D066833E
:10069000E3691A42FCD1EBE7002070BD062040421E
:1006A000FBE7C046600D000027050000ED030000D9
:1006B000F7050000FFFF0000F0B5DE4657464E4646
:1006C0004546E0B583B00500884604690600731E00
:1006D0009E41F3B20193B34FB34A39001800B34EB1
:1006E000B0472869431E9841C0B2B14A3900B047AB
:1006F0004046431E9841C0B2AE4A3900B0476B88AD
:10070000DB0500D525E243465A8880235B001A4367
:1007100041464A802A00C1C9C1C26268134363606E
:100720000422E3691A42FCD12F693B689946A24A28
:100730009C4901989D4B98476B68012B5AD07B6868
:100740009E4A13407B600422FB691A42FCD12B882D
:100750005A055CD56A88D20704D56A888021C90009
:100760000A436A805B00964919400422FB691A42D9
:10077000FCD17B6A8022D2011A4080231B021343E2
:10078000194379620422FB691A42FCD129690B7E64
:10079000DBB28C4A0320184204D10B7EDBB2013A53
:1007A000002AF8D13E680421FA691142FCD17A8B03
:1007B00092B2D90700D4A0E093073ED501233B763F
:1007C0006B88802149010B436B806B887E490B400D
:1007D0006B800120030013405842584105386B8854
:1007E000794A13406B8003B03CBC90469946A246C0
:1007F000AB46F0BD4B461B01A1D57A688023DB02D6
:1008000013437B600422FB691A42FCD19FE76A888C
:100810005B00FF210B40FE39114019430422FB69A4
:100820001A42FCD17B6A8022D20113400B437B62C7
:100830000422FB691A42FCD1A8E753071BD46B883A
:100840005B0535D52B88DB09062119400422FB699D
:100850001A42FCD17B6A8022D2011340F122134359
:100860000B437B62ED3AFB691A42FCD16B88574A15
:1008700013406B8066E06B68002B04DD6B88802280
:10088000520113436B806B881BB2002B06DB6B8815
:100890004D4A13406B8002204042A0E77A68C02393
:1008A0009B0213437B600423FA691342FCD1EEE7F9
:1008B0006B68002B12D16B881BB2002B04DB6B889A
:1008C000414A13406B803DE07A68C0239B0213438A
:1008D0007B600422FB691A42FCD1F0E7AB681A780E
:1008E0002823FA540422FB691A42FCD1AB68013375
:1008F000AB606B68013B6B6024E09B0722D56B68A3
:10090000002B40D052073ED43601F60F013B6B60FE
:10091000002B00D020E1002E00D123E16B881BB218
:10092000002B1DDB6B88284A13406B80A9684B1C89
:10093000AB600422FB691A42FCD12823FB5C0B70DC
:1009400002233B76002680235B009A460321042283
:10095000FF3B9C460133994626339B460196C3E0F4
:100960007B68194A13407B600632FF32FB691A42EA
:10097000FCD17A68C0239B0213437B600422FB698D
:100980001A42FCD1CEE702233B760220404226E702
:100990006268C0239B02134363600422E3691A4226
:1009A000FCD1B6E0600D0000C2050000ED030000C0
:1009B000C3050000C405000097050000FFFFFBFF12
:1009C000FE070000FFFF0000FFFEFFFFFFFBFFFF31
:1009D00002421BD16B885B0535D52B88DB090620CD
:1009E0001840E3691A42FCD1636A8026F60133405D
:1009F000F126334303436362E3691A42FCD16B88F7
:100A0000784803406B80002301936DE06B68002BF6
:100A100004DD6B888020400103436B806B881BB230
:100A2000002B07DB6B88704803406B8002235B421E
:100A3000019359E06068C0239B0203436360E3694C
:100A40001A42FCD1EEE76B68002B13D16B881BB206
:100A5000002B06DB6B88644803406B800023019306
:100A600042E06068C0239B0203436360E3691A426B
:100A7000FCD1EFE7AB681B7858462354E3691A4270
:100A8000FCD1AB680133AB606B68013B6B6000234A
:100A9000019329E0002601964E461E4224D06B6841
:100AA000002B4DD002424BD1FF0E60460740013B68
:100AB0006B60002B00D082E0002F00D185E06B88B6
:100AC0001BB2002B2CDB6B88474803406B80A86867
:100AD000431CAB60E3691A42FCD15B46E35C0370E4
:100AE0004B462376002301936B88504603422DD05A
:100AF0002E69337EDBB23D48194241D1337EDBB2F1
:100B000001380028F8D143465B881BB2002B00DA7D
:100B10003EE76B88344A13406B800520404262E612
:100B20006368314803406360E3691A42FCD160683E
:100B3000C0239B0203436360E3691A42FCD1C2E70E
:100B40004B46237602235B420193CDE7019E3000A2
:100B500049E60620404246E6012B00D0E6E6002E9C
:100B600000D1E3E67A688023DB0213437B60042232
:100B7000FB691A42FCD16B68002B00D1CEE6D5E6AA
:100B80002768E0690242FCD1608B80B266461E4253
:100B900000D17FE74B46034200D119E726766B88E8
:100BA0008026760133436B806B880F4E33406B8019
:100BB0006346184046424641731F019394E7012B58
:100BC00000D084E7002F00D181E760688023DB023A
:100BD00003436360E3691A42FCD16B68002B00D1C8
:100BE0006DE774E7FFFBFFFFFFFEFFFFFFFF000065
:100BF000024B034A5A6005221A60704710E000E079
:100C0000FFFFFF0070B50B0E5E1EF6B2002B13D077
:100C100034000E4A0E4D80204002556095601368E6
:100C20000342FCD0013CE4B2FF2CF6D13306F61AA5
:100C3000084B9C4661447118044B59609960190037
:100C4000802252020B681342FCD070BD10E000E01D
:100C5000FFFFFF00010000FFF0B583B0144B984781
:100C6000144D154F154E01A92800B8472800B0476C
:100C7000802212016B212800114B98476B46991C6A
:100C80006F230B706B46DC1C00232370012201983C
:100C90000C4B98470122210001980B4B9847207874
:100CA000FA239B009C466044084B9847DBE7C0460C
:100CB00015010000200000207B0300005D03000000
:100CC0006903000085030000B90300009D020000D5
:100CD00070B500260C4D0D4C641BA410A64209D122
:100CE000002600F04BF80A4D0A4C641BA410A642E3
:100CF00005D170BDB300EB5898470136EEE7B3005D
:100D0000EB5898470136F2E7880D0000880D000087
:100D1000880D00008C0D00002E2E2F68616C2F7343
:100D200072632F68616C5F6932635F6D5F73796EA8
:100D3000632E63002E2E2F68616C2F7372632F68F1
:100D4000616C5F696F2E63000500000014002000D5
:100D5000000100000E0F00000000D70000093D0058
:100D60002E2E2F68706C2F736572636F6D2F6870F5
:100D70006C5F736572636F6D2E630000F8B5C046DB
:100D8000F8BC08BC9E467047DD000000F8B5C046C0
:0C0D9000F8BC08BC9E467047B50000008F
:00000001FF
