S01200004D792050726F6A6563742E7372656355
S1130000400800202501000021010000210100001A
S113001000000000000000000000000000000000DC
S113002000000000000000000000000021010000AA
S11300300000000000000000210100002101000078
S11300402101000021010000210100002101000024
S11300502101000021010000210100002101000014
S11300602101000021010000210100002101000004
S113007021010000210100002101000021010000F4
S113008021010000210100002101000021010000E4
S113009021010000210100002101000021010000D4
S11300A021010000210100002101000021010000C4
S11300B00000000010B5064C2378002B07D1054B37
S11300C0002B02D0044800E000BF0123237010BDC0
S11300D00000002000000000BC090000084B10B51F
S11300E0002B03D00749084800E000BF0748036815
S11300F0002B00D110BD064B002BFBD09847F9E72D
S11301000000000004000020BC090000BC0900003D
S11301100000000010B5014B984710BD69020000B3
S1130120FEE700001148124970B5884204D000234C
S1130130104CCA18A24213D300210F4B0F4A93420A
S113014012D3FF210E4B0F4A8B43936080230E4A38
S113015051680B4353600D4B98470D4B9847FEE78E
S1130160C55804331560E4E702C3E8E7BC0900009E
S113017000000020000000200000002040000020BB
S11301800000000000ED00E0004000413D090000D7
S1130190E5080000C023C001DB05C3189960802373
S11301A08AB2DB051343044A090C80188362C02316
S11301B01B0619438162704700280040114B70B53B
S11301C018000425DE3002780F24AA4302700122AD
S11301D0017891431143017019000320BF310E7857
S11301E0DF33A643304308701878A8431870187892
S11301F0904302431A700B781C40302323430B7046
S113020070BDC04600280040064B40211A00E03271
S113021011604322DC331A600223034A116A0B4340
S113022013627047001800400004004010B5044BEE
S113023098470449044B05489847054B984710BD17
S113024009020000000400437D0300002000002098
S1130250BD01000010B50248024B984710BDC046CE
S113026010E000E0F1020000F8B5C0261B4BF605D3
S1130270984737008021012480259437C9033960C9
S11302800120174B9847174A2D04D63213782900BA
S1130290A343137020003D60114B9847114A290075
S11302A0D73213780020A343137075610C4B984721
S11302B080210C4AC901573213780020A3431370DC
S11302C07161074B9847074B4E331A78A2431A7053
S11302D0054B9847054B9847F8BDC046A903000055
S11302E095010000002800402D0200005502000086
S11302F010B5024B1860024B984710BD1C0000203B
S113030091080000044B10B51C68044B9847044B3B
S113031001002000984710BD1C000020A10300002C
S1130320A50800001FB514001438828B01AB1A8095
S1130330054A03915A801900044B029498470028F7
S113034000D1200004B010BD0080FFFF3D07000075
S11303501FB514001438828B01AB1A80054A03912F
S11303605A801900044B02949847002800D12000B9
S113037004B010BD0180FFFF3D07000010B5054B20
S113038004009847002803D1034BA361034B636126
S113039010BDC0462D0700005103000025030000D6
S11303A0FA231B015843704710B5094B02205A68C1
S11303B05A60084B9847084B9847084B9847084B96
S11303C09847084B9847FF20074B984710BDC046F5
S11303D000400041730400002104000039040000BF
S11303E00D04000071040000ED030000C30706D5EE
S11303F0034A044B1A62044A59681142FCD17047FB
S11304000601010000180040FD0700000822034B0C
S11304109A71043A5A71033A1A7170470004004001
S1130420F821044B4901DA690A40DA6101221A61B0
S11304307047C0460010004082220B4B10B51A755D
S11304400A4A0220110014780442FCD11022D86810
S11304501042FCD080201A7D02431A750E230A78BC
S11304601A42FCD110BDC046000C0040380C0040BC
S1130470704780230321DB059A780A40904209D013
S1130480FF229A719A7808408A43104398709A79A7
S1130490002AFCD07047C3691942FCD170470000A0
S11304A0022210B50368032193430360014B98476C
S11304B010BDC04697040000C02310B542689B02DB
S11304C0134343600421014B984710BD9704000077
S11304D0F7B50500036800915B4F042114000193F4
S11304E0B84701216B8B009E9BB20E400222002E66
S11304F000D166E013420FD080220B405E425E4181
S11305002976608852010243628062884F48053E22
S1130510024062803000FEBD04261E4015D0636890
S1130520002B04DD802362885B01134363806388AE
S11305301BB2002B02DA2800454B98476388434AD4
S11305401340638002267642E4E780236288DB005E
S11305501A40009218D0062223880421DB09134094
S113056028000093B84780226B6AD2011A40F12315
S11305701343009A042113436B622800B84763882D
S1130580344A13406380C5E76668002E09D1638846
S11305901BB2002B02DA28002D4B984763882B4AA4
S11305A0EFE7A36804211A782B0028331A70280077
S11305B0B847A3680133A3606368013B6360002606
S11305C0A8E700981042A5D06268002A38D05B07DB
S11305D036D4019B013ADE0E0E406260002A0AD135
S11305E0002E0CD180236A68DB0213436B60042164
S11305F02800B84703E0012A01D1002EF2D1636834
S1130600002B10D16388114E1BB2002B08DA6B68E3
S1130610280033406B600421B84728000C4B9847EE
S1130620638833406380A6680421731CA360280098
S1130630B8472B0028331B78337002232B76BEE790
S113064002232B767EE7C04697040000FFFEFFFFDF
S1130650B9040000FFFBFFFF064A0523904203D0C4
S1130660BE231B06C018830AD8B20538431E98411E
S11306704042704700040043F7B50C000090264B3D
S113068008009847E369C7B2244EDB071BD418233C
S11306907B43234A0225D3185A681C2303211A409A
S11306A020000192B04723682B4205D020001D4B47
S11306B0984729002000B0470123019A03211343DE
S11306C023602000B04718257D4320000121B04756
S11306D0134B20005D196F6803212760B047AB6896
S11306E0200063600421B047EB68BF01E360009B16
S11306F0B90F9981676A0C4A20003A4001278F425A
S1130700BF417F42BF03174367620421B0476B8A2E
S1130710009A0020D381FEBD590600009704000012
S113072084090000A1040000FFBFFFFF10B5024BC5
S11307300161984710BDC046790600008023F0B5DA
S113074085B0019142885B00040006691A4200D01A
S113075080E04A881A434A800200A1C9A1C2726893
S11307600421134373603000434FB847256962681E
S11307702B68012A40D1DB0E13423DD080236A68E6
S1130780DB0213436B6004212800B84780232288CE
S1130790DB00510002911A4232D06288D20702D59E
S11307A062881343638004212800B847334B0299BD
S11307B06A6A19400B008021C9011140802212028B
S11307C00A4313436B6228000421B84780230322A1
S11307D020695B02017E013BC9B2002B24D12800B1
S11307E02200274DA8470327002820D06388254AE4
S11307F01340638005B0F0BD6B68234A1340C1E722
S1130800638804219BB228001B4F0393B847FF233E
S11308100299039819400B00012101400B438021E8
S11308206A6AC9010A40CCE71142D3D0D7E78022D3
S1130830638852001342DDD0802322695B02117E5B
S1130840013BC9B2002B07D03942F8D02200300056
S1130850A847ECE706200CE0019B5B881BB2002B49
S113086002DA3000094B984705206388054A134093
S113087063804042BEE7C04697040000FE070000C4
S1130880D1040000FFFEFFFFFFFFFBFFB9040000DF
S1130890024B034A5A6005221A60704710E000E0D8
S11308A0FFFFFF0070B580250B0E0C4A0C4CD8B22C
S11308B06D020138C0B2FF280AD118061B1A591854
S11308C0802351605B02916011681942FCD070BDB5
S11308D05460946016682E42FCD0EAE710E000E011
S11308E0FFFFFF00F8B5104BC0249847E4058023B0
S11308F00E4EDB03336080258023FA200C4F2D0439
S1130900DB013D6040006561E3610A4B9847802349
S1130910DB033B608023DB0135600748A561E361AD
S1130920044B9847E3E7C0461501000098000060B7
S11309309400006005030000DC05000070B500268B
S11309400C4D0D4C641BA410A64209D1002600F0E6
S113095025F80A4D0A4C641BA410A64205D170BDAB
S1130960B300EB5898470136EEE7B300EB589847CD
S11309700136F2E7A8090000A8090000A809000050
S1130980AC09000005000000140020000001000074
S11309900E0F00000000D70000093D00F8B5C04666
S11309A0F8BC08BC9E467047DD000000F8B5C046A0
S10F09B0F8BC08BC9E467047B50000006F
S9030000FC
