:10000000200800202501000021010000210100003E
:1000100000000000000000000000000000000000E0
:1000200000000000000000000000000021010000AE
:10003000000000000000000021010000210100007C
:100040002101000021010000210100002101000028
:100050002101000021010000210100002101000018
:100060002101000021010000210100002101000008
:1000700021010000210100002101000021010000F8
:1000800021010000210100002101000021010000E8
:1000900021010000210100002101000021010000D8
:1000A00021010000210100002101000021010000C8
:1000B0000000000010B5064C2378002B07D1054B3B
:1000C000002B02D0044800E000BF0123237010BDC4
:1000D000000000200000000058050000084B10B58B
:1000E000002B03D00749084800E000BF0748036819
:1000F000002B00D110BD064B002BFBD09847F9E731
:100100000000000004000020580500005805000011
:100110000000000010B5014B984710BDD101000050
:10012000FEE7000010B51A4A1A4B9A4211D01A0085
:10013000194B9A420DD2194A03339B1A9B0801337B
:100140009B000022134812498C58845004329A4272
:10015000FAD1134A134B9A420AD2D34311495B187E
:1001600003218B4304339B18002102C29342FCD12C
:100170000D4AFF210D4B8B4393600D4A53687F3925
:100180000B4353600B4B98470B4B9847FEE7C04619
:10019000580500000000002000000020040000209E
:1001A000000000202000002000ED00E00000000022
:1001B00000400041F1040000E504000010B50248D1
:1001C000024B984710BDC04610E000E04903000014
:1001D000F0B5DE4657464E464546E0B583B0514B36
:1001E0009847C022D20588278024E403D4514E4B7F
:1001F000A8218020C00558504C4D5D509825A94637
:100200005451D624A4461C5D943DAA46AC43654691
:100210005C555C5DA04601244546A543A84665465D
:1002200046465E5580252D04AC46D5515850404D6C
:100230005D5065464E469551D725AC465D5D5646A8
:10024000B543A846654646465E555D5DA543A8464E
:10025000654646465E55D0515850364D5D504D4628
:1002600050514635AC465D5D5646B543A846654699
:1002700046465E555D5DA543A846654646465E55C5
:1002800080252D06D55158502B48585048461550BA
:10029000DF21585C5546A8435854585CA043585435
:1002A0008020C001906025499962C02109069962A9
:1002B000906150604E215D5C042635435D54906131
:1002C0005A5CA2435A541E4B9847C024E40580232D
:1002D000DB01019394268023DB039B46A3519825E1
:1002E00080231B049A4663518023DB059946A35162
:1002F00080231B069846A351019B6361FA20C0002E
:10030000104FB8475B4663515346A3514B46635168
:10031000434663518023DB01A361FA20C000B84744
:10032000D8E7C0468503000000280040400000C018
:10033000800000C0004000C0008000C000400040BD
:10034000BD0100005D03000010B5024B1860024BB8
:10035000984710BD1C0000207D04000010B5044B20
:100360001C68044B984701002000034B984710BDC0
:100370001C0000207D03000091040000FA231B01F3
:100380005843704710B5094B5A685A600220084B11
:100390009847084B9847084B9847084B9847084B95
:1003A0009847FF20074B984710BDC04600400041CA
:1003B000530400000104000019040000ED030000D4
:1003C00051040000C9030000C30707D5044A054BC8
:1003D0001A621900044A4B681342FCD17047C046A8
:1003E0000601010000180040FD070000034B082231
:1003F0009A71043A5A71033A1A7170470004004026
:10040000044BDA69F82149010A40DA6101221A61D4
:100410007047C0460010004082220C4B1A7518002D
:100420003821803A435C1342FCD108491022CB6842
:100430001A42FCD0054A137D80210B43137510002E
:1004400048390E22435C1342FCD17047000C004037
:1004500070478023DB059B780322134098420CD021
:100460008022D205FF239371937803218B430840A8
:10047000184390709379002BFCD07047024B034ACD
:100480005A6005221A60704710E000E0FFFFFF008D
:1004900070B50B0E5E1EF6B2002B13D034000E4A60
:1004A0000E4D802040025560956013680342FCD0D9
:1004B000013CE4B2FF2CF6D13306F61A084B9C46F9
:1004C00061447118044B59609960190080225202EE
:1004D0000B681342FCD070BD10E000E0FFFFFF008E
:1004E000010000FF10B5014B9847FEE71501000021
:1004F00070B500260C4D0D4C641BA410A64209D10A
:10050000002600F019F80A4D0A4C641BA410A642FC
:1005100005D170BDB300EB5898470136EEE7B30044
:10052000EB5898470136F2E7440500004405000007
:100530004405000048050000F8B5C046F8BC08BCFA
:100540009E467047DD000000F8B5C046F8BC08BC08
:080550009E467047B500000053
:00000001FF
