S018000047455454494E472D53544152544544312E7372656385
S1130000F822002025160000211600002116000009
S113001000000000000000000000000000000000DC
S11300200000000000000000000000002116000095
S1130030000000000000000021160000211600004E
S1130040211600002116000021160000AD05000055
S113005021160000211600002116000021160000C0
S1130060A50A0000B50A0000C50A0000D50A000070
S1130070E50A0000F50A0000211600002116000020
S113008021160000D1150000E1150000F115000053
S113009001160000111600002116000021160000B0
S11300A02116000021160000211600002116000070
S11300B00000000010B5064C2378002B07D1054B37
S11300C0002B02D0044800E000BF0123237010BDC0
S11300D0DC0100200000000080450000084B10B542
S11300E0002B03D00749084800E000BF0748036815
S11300F0002B00D110BD064B002BFBD09847F9E72D
S113010000000000E0010020804500008045000060
S11301100000000010B50848084CA0470848A04754
S11301200848A0470848A0470848A0470848A047EF
S11301300848A04710BDC04684410000011C0000CF
S113014098410000D0410000E84100000C4200004A
S113015020420000BC40000010B50E480E4CA047E1
S11301600E48A0470E48A0470E48A0470E48A04797
S11301700E48A0470E48A0470E48A0470E48A04787
S11301800E48A0470E48A0470E48A0470E48A04777
S113019010BDC04688400000011C000098400000CB
S11301A0A4400000B4400000C0400000C84000006B
S11301B0D8400000E4400000044100001C4100005D
S11301C03C41000058410000BC40000070B582B0C2
S11301D00C0015000B4EB0476A1E0B4968460B4BCA
S11301E09847210068460A4B984721000948B047C0
S11301F02078712804D043425841C0B202B070BD87
S11302000120FBE70D1B000048430000191E0000FD
S1130210151C000050430000F0B5DE4657464E461C
S11302204546E0B5ADB006AF6B467B6000239A4609
S1130230824B9846E4E0824B98475346002B00D00B
S1130240DBE07B689D46BD4627B03CBC90469946A2
S1130250A246AB46F0BD7B4B9847EEE706227A49AF
S11302606A3B6046C018794B9847BFE0002B00DA20
S113027087E001235B42FB60754D764E1BE0002B4B
S11302804ADB4A46772A4BD041220592724A0492AD
S11302900393724B0293BA680192009308230822D5
S11302A09446BC4463446A4A6D496E486E4CA04708
S11302B0FB68002B35DA0396BB680293674B019306
S11302C0082308229446BC44634400932B00674AE5
S11302D0402110200824A446BC446044644CA04738
S11302E04022502308217918C918403B08203818A7
S11302F0C018604B9847002813D10C23FA185E49A4
S1130300443308303818C0185C4B9847FB68FF2BFF
S1130310B5DD01235B42FB6059485A4B9847C7E758
S11303209146BB68002B30DA5B4601930823082210
S11303309446BC4463440093454B534A40211020E7
S11303400824A446BC446044494CA047402250239E
S113035008217918C918403B08203818C018454BA3
S11303609847002817D10823FA1843494833D0186E
S1130370424B9847BB687F2B00DC77E701235B4245
S1130380BB603F483F4B9847CBE74C4604E03C48B2
S11303903C4B984700E04C46772C00D14DE7722C3B
S11303A000D14AE74022502308217918C918374858
S11303B0304B9847002800D03FE75023082294464A
S11303C0BC4463441B7819001C0043461B683B6112
S11303D043469A88082308308446BC4463449A8080
S11303E00B00722900D139E77729D0D101235B4270
S11303F0BB60274B9B46A14696E72148214B984773
S11304004022502308217918C9182248194B9847CB
S1130410002810D1502308229446BC4463441B781E
S1130420682B00D107E7692BBCD0612B00D112E700
S113043001239A4601E77B689D4604E74043000098
S113044015010000590100008C420000571F0000F4
S113045094420000D442000014430000F44200001F
S1130460FC420000A04200000D1B0000C44200003A
S1130470B51D0000CD010000C04200005D1E00005B
S11304802C430000011C00009C4200006842000054
S1130490A44200004842000070B50020084B984771
S11304A00500084CFA218900A047074B186007494A
S11304B02800A047064B18600522064B1A6070BD41
S11304C035130000491900000000002040420F00CD
S11304D00400002010E000E030B5084B1C68084A16
S11304E0002580214902013807D3002CFBD0546039
S11304F0956013680B42FCD0F5E730BD0000002086
S113050010E000E00C4B1B68002B06D1EFF31083C6
S1130510002B07D00022094B1A70074A13680133D5
S11305201360704772B6BFF35F8F0022044B1A70DA
S11305300132024B1A70F0E7F8010020FC010020A0
S113054008000020084B1A68013A1A601B68002B47
S113055009D1064B1B78002B05D00122044B1A70DD
S1130560BFF35F8F62B67047F8010020FC010020E2
S113057008000020F0B583B001AC012565700027A8
S1130580A770257021002A20064EB0478022D20091
S1130590054B9A612770657021000220B04703B0B3
S11305A0F0BDC046A10600008028004070B50022BE
S11305B0104B1A70002310491F25104E0D4C0AE0F1
S11305C00D4908E023780133DBB223700F2B10D8D8
S11305D000211F2BF4D928001840012282404869C9
S11305E01042EFD04A619B009B59002BEAD09847F8
S11305F0E8E770BD74020020002400407802002067
S1130600064A137802210B431370012053681942E0
S1130610FCD153681842F9D17047C0460024004009
S113062000B583B0174A516980239B000B43536183
S113063001A900230B700320134B98470320134B8D
S11306409847134A137801210B4313700131012099
S113065053681942FCD153681842F9D10C4A1378F3
S113066010218B4313700B4B19004031002204C33B
S11306708B42FCD10822084B1A60084B984703B000
S113068000BDC0460004004011140000A113000086
S1130690002400407802002000E100E00106000090
S11306A000B583B001AB80221A700A785A704A7878
S11306B09A708A78DA701900014B984703B000BD2C
S11306C00D150000F0B5DE4657464E464546E0B5EA
S11306D087B08046049116001F00002200230021E9
S11306E08B463F2401202100009601975C46039429
S11306F04446059413E02024641A0500E540A84606
S113070014E0009C019D121BAB415C464D462C43FA
S1130710A346039C45462C430394013925D3202446
S113072064420C19E7D40500A540A84604008C4097
S1130730A14692185B4114001D00059E4F463E40A1
S1130740B446049E47463E40B246664657463E433C
S113075003D00600264332002B00009C019D9D42DD
S1130760DBD8CED19442D8D8CBE7039B58461900A6
S113077007B03CBC90469946A246AB46F0BD10B5C6
S1130780490840230024814202D2180010BD1C00F5
S1130790091A631C9BB28842F9D94023FF2CF4D870
S11307A014800023F1E70000F0B583B00F001600B9
S11307B008AA117804004C434022BC4202D910001C
S11307C003B0F0BD002B14D1020008000021194C25
S11307D0A04701003A0000230020174CA047002244
S11307E00123121A8B41120C1B041A43328000227B
S11307F0E5E70022012BF9D10A00002300210D4C6A
S1130800A04702000B0000920193380000210A4C1B
S1130810A047050080239B0140229842CFD8790F3E
S1130820F800009A019BA047EA00821AD2B2520350
S11308302A43DBE7611A0000C506000010B582B048
S113084004000E4B1B78002B07D0002905D10B4B5D
S11308505B78834210D01D200CE001A90C7011209C
S1130860074B98471120074B9847044B5C700122B3
S11308701A70002002B010BD0020FBE70002002027
S113088011140000A1130000404B984232D00AD941
S11308903F4B98424ED03F4B98425BD03E4B9842E0
S11308A038D0002070478423DB0598420CD03B4BA2
S11308B09842F6D1012917D000295DD0022915D01C
S11308C0032915D00020EDE7012907D0002951D0D4
S11308D0022905D0032905D00020E3E73048E1E7E9
S11308E03048DFE73048DDE73048DBE73048D9E718
S11308F03048D7E7012907D000293FD0022905D085
S1130900032905D00020CDE72B48CBE72B48C9E7C6
S11309102B48C7E7012907D0002931D0022905D087
S1130920032905D00020BDE72648BBE72648B9E7E0
S11309302648B7E7012907D0002923D0022905D08A
S1130940032905D00020ADE72148ABE72148A9E7FA
S11309502148A7E7012907D0002915D0022905D08D
S1130960032905D000209DE71C489BE71C4899E714
S11309701C4897E71C4895E7032093E71B4891E739
S11309801B488FE71B488DE71B488BE70008004294
S11309900010004200040043000C00420004004226
S11309A00300050003000600030007000300010024
S11309B003001E0003001F000300090003000A00D7
S11309C003000B00030011000300120003001300D6
S11309D003000D0003000E0003000F0003001700C6
S11309E003001800030019000300040003000800BA
S11309F00300100003000C000300160030B587B09C
S1130A000B4B6A4632CB32C232CB32C2009B83429A
S1130A100BD001239A0069465258824206D0013312
S1130A20062BF7D1002007B030BD0023D8B2FAE777
S1130A305843000070470000F0B50A4B1B78002BA8
S1130A400CD1094F094E0A4D0024DE515A19146085
S1130A500433182BF9D10122024B1A708000024B87
S1130A60C150F0BD0202002004020020350A00003B
S1130A70B802002000B583B008236A46137001331E
S1130A805370013393700133D37001331371013305
S1130A905371034B98476B46185603B000BDC046CC
S1130AA0FD09000010B5024B1B680020984710BDDB
S1130AB00402002010B5024B5B680120984710BD6A
S1130AC00402002010B5024B9B680220984710BD19
S1130AD00402002010B5024BDB680320984710BDC8
S1130AE00402002010B5024B1B690420984710BD76
S1130AF00402002010B5024B5B690520984710BD25
S1130B0004020020F0B5DE4657464E464546E0B5A1
S1130B1091B005000C00160029600800C44B9847EA
S1130B20020005280DD007001237030021680520B4
S1130B30C90709D511B03CBC90469946A246AB46BC
S1130B40F0BD18270123F1E7216817308907F1D494
S1130B50052A49D0B749C86901229A4013000343C2
S1130B60CB610FA92D239846F35C0B70FFB23800BC
S1130B70B14B98473800B14B98474346F05C00218D
S1130B80AF4B9847F37A6B712423F35CAB71252345
S1130B90F35CEB71F37E2B72337F6B722B68984698
S1130BA01800A34B9847052826D0123000220E23A4
S1130BB006A98C4663441A80328A02928023DB01A0
S1130BC09A4200D1A7E019D9C023DB01029A9A42C4
S1130BD000D19BE080231B029A4200D023E103232F
S1130BE006930023079312E09249086A043A9A4054
S1130BF0130003430B62B4E71820D7E780239B015B
S1130C009A4200D00FE1102306930F3B07933368F9
S1130C100593F3689B4673690393337E04932623F9
S1130C20F35C9A4673689946002B00D19BE08023BD
S1130C305B05994504D12723F35C002B00D180E0A8
S1130C40737E002B02D0B37E424693730E2306AA12
S1130C50944663441B8842469381059B5A4613433A
S1130C60039A13434A461343029F1F43049B1B02E8
S1130C701F4353465B071F432723F35C002B01D11B
S1130C8004331F43737E9B02327F52021343727FED
S1130C90120213432422B25C520413432522B25C91
S1130CA012041343B17AF27A114319433389FF2BA7
S1130CB07DD080225204174319432C23F35C002B6C
S1130CC003D1604B9B789B0701D580231F432A687F
S1130CD0D369002BFCD1434659602A68D369002BA1
S1130CE0FCD143461F600EAB80221A7000225A705A
S1130CF0DA709A70336B0A93736B0B93B36B0C9328
S1130D00F36B02930D9300270AAE5EE0082306936B
S1130D10073B07937BE733680593F3689B46736946
S1130D200393337E04932623F35C9A4673689946AF
S1130D30002B14D080235B05994500D17BE700206C
S1130D4020E0336A1F00C0B23F4B984701000E22D7
S1130D5006AB9C46624438003C4B984712E008239B
S1130D600693002307932723F35C002B0ED0069BE6
S1130D700093079B0E2206A98C466244B16A306A2E
S1130D80334FB847002800D0D4E659E7336A1F0030
S1130D90C0B22D4B98470100069B0093079B0E227F
S1130DA006A8844662443800294FB847EAE7F37E30
S1130DB0002B82D08023DB041F437EE72000254BD9
S1130DC0984707E00137042F0DD0F9B2BB009859BA
S1130DD00028F3D0431CF5D00EA90870000CC0B253
S1130DE01D4B9847EEE70023EB602B616B61AB6111
S1130DF0EB612B62AB626B620022EB85AB85303317
S1130E00EA540133EA540133EA540133EA542868BA
S1130E10074B984704001149114B9847A400114B04
S1130E20E550002086E61023069300230793EEE6A0
S1130E30FD0900000004004011140000A11300008B
S1130E403D08000000200041351400007F07000029
S1130E50A9070000890800000D150000F90E000024
S1130E60390A0000B8020020C2791C23002A01D1EB
S1130E7018007047C28D92B2173B002AF8D102685D
S1130E8011850221137E0B42FCD00023F0E7827906
S1130E901C23002A01D118007047828D92B2173B9F
S1130EA0002AF8D10268107E4007F4D5538BDBB2D8
S1130EB098061DD0980703D5022353831833EAE715
S1130EC0580703D5042353831A33E4E7D80703D51B
S1130ED0012353831233DEE7D80603D5102353834B
S1130EE03233D8E79B0603D5202353832133D2E73B
S1130EF0138D0B800023CEE7F8B58000624BC558F4
S1130F002C68E369002BFCD1237EA67D1E40302390
S1130F10EB5C3122AF5C1F40F30722D5EB8D9BB213
S1130F20002B1CD0AA6A1378DBB2511CA962697920
S1130F3001290ED09BB2DB05DB0D2385EB8D013B34
S1130F409BB2EB85002B0CD1013323750133A375C0
S1130F5007E0517809020B430232AA62EBE701234E
S1130F602375B30706D50223237500223133EA54CF
S1130F70FB071AD4730765D5AB8D9BB2002B5FD0EA
S1130F80638BDBB21A0714D43F221340002B34D0F6
S1130F909A0711D51A223223EA54303B63837B0724
S1130FA050D528006B6998474CE02800EB689847B7
S1130FB0E0E737221340E9E75A0705D51E2232231A
S1130FC0EA542E3B6383EAE7DA0705D5132232237A
S1130FD0EA54313B6383E2E7DA0605D54222322341
S1130FE0EA54223B6383DAE720221A42D7D0213223
S1130FF03223EA54123B6383D1E7238DDB05DB0DF7
S1131000DAB2696A0A706A6A511C696269790129EB
S113101010D0AB8D013B9BB2AB85002B12D10433B6
S1131020237500222E33EA54BB070BD528002B6905
S1131030984707E01B0A53706B6A01336B62E8E759
S113104004232375F30604D5102323752376FB06A6
S11310500ED4B30604D52023237523763B070BD483
S1131060330704D5082323752376BB0608D4F8BDBB
S11310702800EB699847ECE72800AB699847EFE74D
S11310802B6A28009847F2E7B802002010B5082818
S113109003D880001D4B1B589F46002034E01C4B96
S11310A0186931E01B4B187D0007800F431C1A4858
S11310B0584329E0164B586926E0154B1B6800205D
S11310C09B0721D5134980225200CB681342FCD0E0
S11310D00F4B1A6824231340042B01D00F4813E04C
S11310E000200F4B98470A4B9B681B041B0C58436A
S11310F00AE02823074AD35C00209B0704D5044B4D
S1131100D86801E08020000210BDC0467043000092
S11311101C020020000C004000093D00006CDC02B1
S11311203514000010B584B080225200324B9A600E
S1131130FD3A324B9A60324A53681E218B43536006
S11311408023DB059B78022B0FD08023DB059B7863
S11311505BB2002B09DB8023DB0501229A7101328B
S11311609A701A009379002BFCD0234B197D8022AE
S113117052420A431A751A7D40218A431A75214B3B
S11311809847214C0123A3716371237101A94B601A
S113119000234B7006220A700B724B7200201B4B0B
S11311A0984700201A4B984700201A4B98472179FA
S11311B0C9B2194B9847194B984202D90822A27117
S11311C06271174B984214D88023DB059B78002B5F
S11311D00FD08023DB059B785BB2002B09DB8023D7
S11311E0DB0501229A7100229A701A009379002B70
S11311F0FCD004B010BDC046000C004000140040F8
S11312000040004125120000000400404912000083
S1131210F51200003513000049190000808D5B00B1
S1131220001BB700064A536940210B435361012256
S1131230044B1A7019000B781342FCD17047C04656
S1131240000400400018004070B504000D784B788D
S1131250002B02D08023DB001D434B7A002B02D0ED
S113126080231B011D43486801280FD9431E1842DF
S113127031D102282DD90223002201325B00984289
S1131280FBD880235B011D43120415430B7A002B0A
S113129002D080239B011D430426A6401149124A13
S11312A04B6813401E42FBD1104B9847A4000D4BD2
S11312B09C466444226A80235B001A402A432262CB
S11312C06146094A4B6813401E42FBD1084B9847BC
S11312D070BD0022D5E7000480239B00184305431A
S11312E0D4E7C04600180040FC07000005050000D4
S11312F04505000010B504000422824009480A494B
S113130043680B401A42FBD1084B9847A400054B95
S11313109C466444226A80235B0013432362044B8B
S1131320984710BD00180040FC07000005050000A8
S113133045050000F8B50400042282401248134910
S113134043680B401A42FBD1114B98470E4F0834A7
S1131350A400E0590007000F0E4B98470600E5591A
S1131360ED04ED0FE459240C0B4B9847002D07D1E5
S1131370012C07D921003000084B9847060001E0F2
S11313800134E6403000F8BD00180040FC070000BE
S1131390050500008D1000004505000049190000F6
S11313A010B50400094B9847A000094B9C466044C3
S11313B08022835840210B4383504031403A4358A4
S11313C01A42FCD0034B984710BDC04605050000E7
S11313D0001800404505000010B50400094B98476B
S11313E0A000094B9C4660448022835840218B43D3
S11313F083504031403A43581A42FCD1034B98473A
S113140010BDC04605050000001800404505000059
S113141070B504000D00054B98472A780F2313403C
S11314202034A400024AA35070BDC046D913000062
S11314300018004010B50400064B98472034A4005F
S1131440054BE4582407240F044B98472000044B11
S1131450984710BD05050000001800404505000030
S11314603513000030B5D378002B35D11378802B99
S113147029D01B0680246402234354780225AC43FC
S113148006D19478002C20D18024A4022343416007
S11314905478013C012C1CD90D042D0CA024E40526
S11314A02C431C4384620D0CD02424062C431C437F
S11314B08462D478002C22D15B031CD59378012B51
S11314C01ED0416117E00023D7E7C024E402234380
S11314D0DDE70D4C2340DFE741600C04240CA0231E
S11314E0DB05234383620C0CD0231B062343836256
S11314F0D378002B03D15378013B012B02D930BDA3
S11315008161F8E78160FAE7FFFFFBFF10B50A008D
S1131510C1090023002904D14309DB0105498C4694
S113152063441F242040012181401800024B984746
S113153010BDC0460028004065140000704700003C
S113154010B5054B9847054B9847054B9847054BF5
S11315509847054B984710BD2511000075050000FC
S11315603D150000210600003D15000070B5800007
S1131570164BC45823689D7A227E637E13401D4017
S1131580EB0706D4AB070BD4EB0610D4AB0615D48B
S113159070BD2000A3689847012322689372F1E785
S11315A02000E3689847022322689372ECE7200046
S11315B023699847102322689372E7E72000636940
S11315C09847236820229A72E2E7C046D00200209E
S11315D010B50020014B984710BDC0466D150000A2
S11315E010B50120014B984710BDC0466D15000091
S11315F010B50220014B984710BDC0466D15000080
S113160010B50320014B984710BDC0466D1500006E
S113161010B50420014B984710BDC0466D1500005D
S1131620FEE7000010B51A4A1A4B9A4211D01A006C
S1131630194B9A420DD2194A03339B1A9B08013362
S11316409B000022134812498C58845004329A4259
S1131650FAD1134A134B9A420AD2D34311495B1865
S113166003218B4304339B18002102C29342FCD113
S11316700D4AFF210D4B8B4393600D4A53687F390C
S11316800B4353600B4B98470B4B9847FEE7C04600
S11316908045000000000020DC0100200400002040
S11316A0DC010020F402002000ED00E00000000056
S11316B000400041B51A0000D1170000F0B5C6463D
S11316C000B50C00904600280FD1002A11DD8F18B8
S11316D0094E0A4D306821002B6898470134BC42FA
S11316E0F8D1404604BC9046F0BD01235B429846C5
S11316F0F7E78046F5E7C046EC020020E40200204C
S1131700F0B5C64600B50E0015000138022810D801
S1131710002A11D000240C4B98460C4F43461868FD
S1131720315D3B689847002808DB0134A542F5D1B8
S113173006E00124644203E0140001E00124644251
S1131740200004BC9046F0BDEC020020E80200201A
S11317500300064A1268002A04D0044A1068C31819
S1131760136070470249014A1160F6E73402002011
S1131770F822002001204042704780239B014B60E7
S113178000207047012070470020704770B582B078
S113179005000E0000226B46DA80064C6B46991D4C
S11317A02800A0470028F9D16B4606331B88337004
S11317B002B070BD8F0E000070B505008CB2034EF0
S11317C021002800B0470028FAD170BD690E00003E
S11317D0F0B593B0454B984701AA8023DB050193EC
S11317E000235360FF21118100219372D3720124DD
S11317F02420145401301454013013540130135470
S11318009362053013540130135453611382D37619
S113181011761177517613239376517780235B03E6
S1131820D360334B1363334B536301235B429363A2
S1131830D363E1235B0213622F4D304B1D603049AB
S1131840304B19603049314B196031492800314B14
S11318509847314F3B6898680021304EB0473B6849
S113186058680021B0472E6830002D4B98471F233D
S1131870184084402B4B1C602B68DA69002AFCD189
S11318803368023213433360274B984711A901236D
S11318904B7000228A700B702A20244B9847244CEA
S11318A08025ED00A561E561FA27BF003800214ECF
S11318B0B047E5613800B047E5613800B04714240B
S11318C01B4F2E001B4DFE616420A847013C002CD9
S11318D0F9D18022D200164B9A611748174B9847CA
S11318E0174B9847174CA047FDE7C0464115000029
S11318F0020016000200170038020020EC0200204B
S1131900B9170000E80200208D170000E40200204F
S1131910000C0042050B00000C000020491C0000D4
S1131920750A000000E100E099040000A10600002F
S113193080280040D9040000BC400000011C0000C5
S11319401501000019020000002243088B4274D3E1
S113195003098B425FD3030A8B4244D3030B8B42AC
S113196028D3030C8B420DD3FF22090212BA030CB5
S11319708B4202D31212090265D0030B8B4219D396
S113198000E0090AC30B8B4201D3CB03C01A5241B6
S1131990830B8B4201D38B03C01A5241430B8B42FE
S11319A001D34B03C01A5241030B8B4201D30B03E7
S11319B0C01A5241C30A8B4201D3CB02C01A52410E
S11319C0830A8B4201D38B02C01A5241430A8B42D1
S11319D001D34B02C01A5241030A8B4201D30B02BA
S11319E0C01A5241CDD2C3098B4201D3CB01C01AD4
S11319F0524183098B4201D38B01C01A52414309DE
S1131A008B4201D34B01C01A524103098B4201D3CB
S1131A100B01C01A5241C3088B4201D3CB00C01A38
S1131A20524183088B4201D38B00C01A52414308B0
S1131A308B4201D34B00C01A5241411A00D20146D5
S1131A40524110467047FFE701B5002000F006F848
S1131A5002BDC0460029F7D076E770477047C046FC
S1131A60F0B5CE46474615042D0C2E0080B507046C
S1131A70140C3F0C9946030C7E435D436743634358
S1131A807F19340CE4199C46A54203D980235B02D8
S1131A909846C4444B46514343433604360C250C04
S1131AA024046544A4195918491920000CBC904613
S1131AB09946F0BD70B500260C4D0D4C641BA41066
S1131AC0A64209D1002602F04BFD0A4D0A4C641BC4
S1131AD0A410A64205D170BDB300EB589847013657
S1131AE0EEE7B300EB5898470136F2E76C45000087
S1131AF06C4500006C45000070450000030082182E
S1131B00934200D1704719700133F9E70FB40B4BBE
S1131B1013B51C68002C05D0A369002B02D120004A
S1131B2000F02CFC05AB049AA1682000019301F09D
S1131B3079F916BC08BC04B01847C0460C00002054
S1131B4070B505000E00002804D08369002B01D174
S1131B5000F014FCAB69AC68002B02D1280000F043
S1131B600DFC244B9C420FD16C68A3891B0702D542
S1131B702369002B20D12100280000F06BFA0028F3
S1131B801AD00120404270BD1B4B9C4201D1AC686D
S1131B90EBE71A4B9C42E8D1EC68E6E7013B0136DF
S1131BA0A360002B04DAA269934216DB0A2914D03D
S1131BB023685A1C226019703178A3680029EDD17A
S1131BC0013BA360002B0FDA22000A31280000F049
S1131BD0D7F9431CD5D00A20D5E72200280000F00D
S1131BE0CFF9431CE8D1CCE70A2023685A1C2260B1
S1131BF01870C8E7B8430000D843000098430000B9
S1131C0010B5034B01001868FFF79AFF10BDC046DA
S1131C100C0000200FB40B4B13B51C68002C05D02E
S1131C20A369002B02D1200000F0A8FB05AB049AA5
S1131C3061682000019301F01FFD16BC08BC04B0CC
S1131C401847C0460C0000204A424A41802310B580
S1131C505200DB0000F002F810BD0000F0B51D00DA
S1131C604F4B85B01E6804000F000092002E05D073
S1131C70B369002B02D1300000F080FB494B9C4239
S1131C8050D17468009B022B05D0012B00D984E04D
S1131C90002D00DA81E02100300000F0EDFA616BE4
S1131CA0002908D023004433994202D0300000F0C8
S1131CB0A1FC002363630023A3616360A3891B0663
S1131CC003D52169300000F095FCA389364A1340FE
S1131CD0A381009B022B5AD003AB02AA210030003F
S1131CE000F012FCA3891843A081002D24D1029D89
S1131CF0280000F075FC0195071E42D1029B019358
S1131D00AB4239D1012040420223A2891343A3816B
S1131D100023A3602300473323602361012363610D
S1131D2005B0F0BD214B9C4201D1B468AAE7204B19
S1131D309C42A7D1F468A5E7002FD9D0B369002B42
S1131D4002D1300000F01AFB009B012B03D1A389C0
S1131D50009A1A43A2810820A3892760276165613C
S1131D60184018D0012018400023984211D06D4229
S1131D70A360A5611800D3E7019800F031FC071EA9
S1131D80C0D08023A289019D1343A381D6E70020FC
S1131D90BAE7A560C4E7A060C2E701204042BFE7FC
S1131DA00C000020B84300005CF3FFFFD8430000A0
S1131DB0984300000CB430B5164B9DB00C1E1D6842
S1131DC008DA8B2301202B6040421DB030BC08BCD4
S1131DD002B01847822302A99B008B810023029042
S1131DE008619C4200D0631E8B604B6101235B42FF
S1131DF0CB81209A21AB2800019300F005FD431C00
S1131E0001DA8B232B60002CDFD00023029A13709D
S1131E10DBE7C0460C0000200EB410B59DB002A94B
S1131E20029008610B488224886048610120404286
S1131E301FABC881084804CBA400006801938C81BF
S1131E4000F0E2FC0023029A13701DB010BC08BC21
S1131E5003B01847FFFFFF7F0C0000200EB481235E
S1131E6070B59DB002AC21AD9B0040CDA381029022
S1131E70069000F069F80B4B6060636200236061B8
S1131E8009486363A364013BE38132002B00210012
S1131E900068019500F018FE1DB070BC08BC03B0CA
S1131EA01847C046D51E00000C00002070B50C0079
S1131EB00E25495F01F06CFD002803DB636D1B18E0
S1131EC0636570BDA389024A1340A381F9E7C04644
S1131ED0FFEFFFFF00207047F8B51F008B89050056
S1131EE00C001600DB0505D50E23C95E0022022373
S1131EF000F0F6FAA389054A28001340A3813200B2
S1131F000E23E15E3B0000F091F8F8BDFFEFFFFF08
S1131F1070B50C000E25495F00F0E2FAA389421C5B
S1131F2003D1054A1340A38170BD8022520113439B
S1131F30A3816065F8E7C046FFEFFFFF10B50E23ED
S1131F40C95E00F0FDF810BD0023C25C0133002A15
S1131F50FBD1581E704770B50400002A00D170BD33
S1131F600D78561E631C25700131002D05D1A4186F
S1131F709C42F4D01D700133FAE71C003200ECE7F8
S1131F80F8B505000E001400002804D08369002B66
S1131F9001D100F0F3F9224B9C422DD16C68A36966
S1131FA0A360A3891B0731D52369002B2ED0236896
S1131FB02269F7B2981A6369F6B2984205DB2100E8
S1131FC0280000F059F9002826D1A3680130013B0C
S1131FD0A36023685A1C22601F706369984204D06E
S1131FE0A389DB071AD50A2E18D12100280000F096
S1131FF043F9002812D00FE00A4B9C4201D1AC688F
S1132000CDE7094B9C42CAD1EC68C8E721002800FF
S113201000F020F80028CAD0012676423000F8BD2E
S1132020B8430000D84300009843000070B5050091
S1132030080011000022064C22601A00FFF760FB22
S1132040431C03D12368002B00D02B6070BDC04615
S1132050F0020020364B70B51D6806000C00002D00
S113206005D0AB69002B02D1280000F087F9314B71
S11320709C420FD16C680C23E25E93B219072DD4F5
S1132080D90611D409230120336037331343A381C4
S1132090404270BD284B9C4201D1AC68EBE7274B12
S11320A09C42E8D1EC68E6E75B0713D5616B002935
S11320B008D023004433994202D0300000F09AFA49
S11320C0002363632422A3899343A38100236360D1
S11320D0236923600823A2891343A3812369002B66
S11320E00BD1A0218022A389890092000B40934246
S11320F003D02100300000F02FFA0123A2891340FD
S113210011D00023A36063695B42A36100202369AB
S11321108342BED10C23E25E1306BAD54023134397
S1132120A3810138B5E7920700D46369A360EDE7A2
S11321300C000020B8430000D8430000984300007E
S1132140002370B5064C050008002360FFF712FB5E
S1132150431C03D12368002B00D02B6070BDC04604
S1132160F0020020F7B58A8905000C00130760D43B
S11321704B68002B04DC0B6C002B01DC0020FEBD43
S1132180E76A002FFAD000232E682B6080235B01BE
S11321901A4034D0606DA3895B0706D56368C01A02
S11321A0636B002B01D0236CC01A0200216A002348
S11321B02800E76AB847A189431C06D12B681D2B68
S11321C031D82C4ADA40D3072DD500236360236924
S11321D02360CB0405D5431C02D12B68002B00D10E
S11321E06065616B2E600029C8D023004433994296
S11321F002D0280000F0FEF900206063BFE701234D
S1132200216A2800B847431CC5D12B68002BC2D0D3
S11322101D2B01D0162B01D12E60AFE74023A289DC
S11322201343A381ABE740230B430120A381404226
S1132230A5E70F69002FA1D00B680F60DB1B01938A
S11322400023920700D14B69A360019B002B00DCA3
S113225094E7019B3A00216A2800A66AB047002847
S113226003DC4023A2891343DFE7019B3F181B1AB9
S11322700193EAE7010040200B6970B505000C00EA
S1132280002B01D1002070BD002804D08369002BED
S113229001D100F073F80B4B9C4209D16C680C22FD
S11322A0A35E002BEED021002800FFF75BFFEAE7D6
S11322B0054B9C4201D1AC68F1E7044B9C42EED142
S11322C0EC68ECE7B8430000D843000098430000F2
S11322D010B5011E05D1054B0549186800F0DEF85C
S11322E010BD044B1868FFF7C7FFF9E794430000DB
S11322F0792200000C00002010B5024900F0CEF84D
S113230010BDC04679220000002310B5040003600C
S11323104360836081814366C28103614361836159
S1132320190008225C30FFF7E9FB054B2462636265
S1132330044BA362044BE362044B236310BDC04609
S1132340AD1E0000D91E0000111F00003D1F00003B
S113235070B568254A1E55430E002900743100F0FB
S113236093F9041E08D000212A00016046600C3055
S1132370A0606832FFF7C2FB200070BD836913B50B
S11323800400002B28D18364C3640365134B144AEF
S11323901B6882620193984201D10123836120006A
S11323A000F020F86060200000F01CF8A06020001D
S11323B000F018F80022E06004216068FFF7A4FF31
S11323C001220921A068FFF79FFF02221221E06881
S11323D0FFF79AFF0123A36113BDC0469443000095
S11323E0F9220000F8B51E4B07001E68B369002BE4
S11323F002D13000FFF7C2FF4836B4687368013B6E
S113240004D53368002B07D03668F6E70C22A55EA6
S1132410002D0DD06834F2E704213800FFF798FF4F
S113242030600028F0D10C2304003B602000F8BD8C
S1132430012320005B42E3810233A38165662560AA
S1132440A560656025616561A561082229005C308D
S1132450FFF754FB6563A563A564E564E6E7C0463E
S113246094430000F7B54830040000260191002C85
S113247001D13000FEBDA5686768013F01D524681D
S1132480F5E7AB89012B07D90E22AB5E013303D0EC
S11324902800019B984706436835EEE7F7B504002A
S11324A00700002601914834002C01D13000FEBD04
S11324B06368A5680093009B013B009301D52468E1
S11324C0F2E7AB89012B08D90E22AB5E013304D0AD
S11324D029003800019B984706436835EBE7000064
S11324E070B50500080011000022064C22601A0095
S11324F0FFF74AF9431C03D12368002B00D02B605B
S113250070BDC046F002002070B50E001D000E2301
S1132510C95E90B01400002907DA00232B60B38948
S11325201B0611D48023DB000FE001AA01F002FD99
S11325300028F2DBF022029B12021340054A9B188A
S11325405A4253412B60EDE740230020236010B032
S113255070BDC04600E0FFFFF7B502268B89050079
S11325600C00334206D02300473323602361012348
S11325706361F7BD01AB6A46FFF7C6FF0099070028
S1132580280000F081F8002808D10C22A35E9A05E7
S1132590EFD4032293431E43A681E4E70F4BAB62BF
S11325A08023A28920601343A381009B206163617F
S11325B0019B002B0DD00E23E15E280001F0CCFC22
S11325C0002806D00322A38993431A00012313434E
S11325D0A381A0893843A081CBE7C046F92200003B
S11325E010B5034B0100186800F04EF810BDC0464A
S11325F00C00002070B50500002910D00C1F2368C2
S1132600002B00DAE418280001F002FD1D4A1368CB
S1132610002B05D163601460280001F0FAFC70BD42
S1132620A34209D9216860188342F3D118685B6812
S113263041182160EEE713005A68002A01D0A24233
S1132640F9D919685818A0420BD1206809185818EC
S113265019608242E0D110685268411819605A60CA
S1132660DAE7A04202D90C232B60D5E72168601871
S1132670824203D1106852684118216062605C6034
S1132680CAE7C0466C020020032370B5CD1C9D43ED
S1132690083506000C2D1ED20C25A9421DD8300089
S11326A001F0B6FC254A14682100002919D1244CF4
S11326B02368002B03D1300001F01AFA20602900AE
S11326C0300001F015FA431C2CD10C233000336088
S11326D001F09FFC03E0002DDFDA0C2333600020BF
S11326E070BD0B685B1B1AD40B2B03D90B60CC1881
S11326F0256003E08C420ED163681360300001F062
S113270088FC200007220B30231D9043C31AE7D016
S11327105A42E250E4E74B6863600C00EEE70C00B9
S11327204968C2E70323C41C9C43A042E0D0211A99
S1132730300001F0DDF9431CDAD1C6E76C02002059
S113274070020020F0B58E6885B007000C0003927B
S113275001939E4239D890238A89DB001A4234D0EF
S11327600325096923685B1A0293636902985D4330
S1132770EB0F5D19019B6D1001331B18AB4200D99F
S11327801D00530532D529003800FFF77DFF061ED2
S113279009D10C233B6040230120A289404213430A
S11327A0A38105B0F0BD029A216901F016FCA3894A
S11327B0144A1A4080231343A381029B2661F6180E
S11327C026606561019EED1AA560019BB34200D2AB
S11327D01E0032000399206801F008FCA368002061
S11327E09B1BA36023689E192660DAE72A00380041
S11327F001F010FC061EE0D121693800FFF7FAFE53
S1132800C7E7C0467FFBFFFFF0B59FB0029005937A
S11328108B890F0016001B0611D50B69002B0ED1F6
S11328204021FFF731FF38603861002805D10C23BF
S1132830029A013813601FB0F0BD40237B6100236E
S113284006AD6B6120336B761033AB76340023789E
S1132850002B47D1A31B04930DD0A31B32003900D6
S11328600298FFF76FFF431C00D1B5E06A69049B2F
S1132870944663446B612378002B00D1ACE00122C1
S1132880002352426A6002A95432521801342B6068
S1132890EB60AB601370AB65584E052221783000B5
S11328A001F090FB621C002820D12968CB0604D5D6
S11328B0532302AE20309B1918700B0704D5532301
S11328C02B2002AE9B19187023782A2B16D00020D7
S11328D00A21099B2278303A092A55D9002815D0B3
S11328E0099313E0252BB5D00134B0E70123801BF5
S11328F08340296814000B432B60CDE7059B181D0A
S11329001B680590002B39DB0993140023782E2BC8
S11329100BD16378621C2A2B3ED1059B02341A1D0D
S11329201B680592002B34DB0793354E2178032274
S1132930300001F047FB002806D04023801B834071
S11329402A68013413432B60217806222D48661C23
S1132950297601F037FB002846D02B4B002B2FD1D2
S11329602968059B0722C90528D59B18934308337A
S113297005936B69039A9B186B6167E75B42EB6095
S113298002230B432B60C0E74B4301349B18012007
S1132990A0E701235B42C7E7002314000A201A00C2
S11329A06B6021783039092903D9002BBDD00792F7
S11329B0BBE74243013452180123F2E70733D5E75A
S11329C005AB00933A00114B2900029800E000BFC8
S11329D00390039B0133CCD1BB890B985B0600D4D5
S11329E029E70120404226E705AB00933A00074B54
S11329F02900029800F0A0FBEAE7C046F843000073
S1132A00FE430000024400000000000045270000CF
S1132A1070B514004B1C03D101256D42280070BD14
S1132A20938920229343626BA381CEB2CDB26368B3
S1132A30002A10D0A26B934207DA2368013B23607B
S1132A401E70636801336360E8E7210001F0C2F996
S1132A500028F2D0E0E721692268002907D09142DA
S1132A6005D2511E0878854201D12160EAE723642A
S1132A702300443363630323A36323004633E263E5
S1132A801E7023600123DEE710B50C00496B00299A
S1132A900ED023004433994201D0FFF7ABFD002050
S1132AA0236C60636360834202D0E36B236010BDD8
S1132AB02369012023600023A28963602033134328
S1132AC0A3814042F3E70000F0B5BD4C8625A54440
S1132AD0039300234893499305AB4A93BE236D00A7
S1132AE000900C0002A8B7495B004019C027C150F0
S1132AF002AB5B191500B4497F00D9512B78002B28
S1132B0000D15BE101F03EFA08222B78C018019352
S1132B104378134041D1019A6E1C252A00D0A8E0C5
S1132B20479345936B782A2B02D11A3B4593AE1CED
S1132B3035000A2229780B00303B092B48D9A34ED3
S1132B400322300001F03EFA002807D00123801B45
S1132B508340459A01351343029245932B786E1CAA
S1132B60672B58D8652B00D3DDE0472B38D8452B8D
S1132B7000D3D8E0002B00D11DE1252B79D003230D
S1132B804B930733469353E0499A01330192013240
S1132B90499262682360013A62606368002B0BDD2E
S1132BA001F0F0F9082123681A78801842780A4263
S1132BB0EAD16E1C3500A1E7862202AB52009B18B5
S1132BC0DB5921000098019398470028E8D0F0E7EA
S1132BD0479B013502935343303B59184791A9E76A
S1132BE05B2B00D177E00FD8582BC8D1459A0192BE
S1132BF08022019992000A434592102246920322B0
S1132C006E2B14DD013212E0632B00D171E0642BD2
S1132C10B5D10A22F2E7702B52D022D86E2B00D104
S1132C206FE054D8692BAAD10023032246934B9218
S1132C306368002B00DC78E0459B01935B0600D4BD
S1132C408BE04B9B022B00DD9DE003AB220045A9EA
S1132C50009800F039FD012800D1AFE00228A9D185
S1132C6025E0752BD5D0782BC0D0732B87D10223C8
S1132C703DE06368002B0FDD236801991A789142C7
S1132C8000D09BE0013362682360499B013A0193C1
S1132C900133626049938DE7862202AB52009B1890
S1132CA0DB5921000098029398470028E4D0489803
S1132CB0002800D07BE00138A7239B009D44F0BD91
S1132CC0459A0192202201990A4345928EE70823EE
S1132CD004224693ABE7310005A800F01BFF459B97
S1132CE0060001934023019A1343459301234B9318
S1132CF09EE7459B01934023019A13434593002388
S1132D00F5E74599CB0600D554E7039B499AC807D4
S1132D1004D5191D03911B681A804BE7191D0391F3
S1132D201B681A6046E70523E1E7862202AB5200DE
S1132D309B18DB592100009801939847002800D183
S1132D407AE7B4E7499A0192013249926268013AFA
S1132D506260002A0BDD0133236001F013F90821BE
S1132D6023681A78801842780A42EBD169E78622F0
S1132D7002AB52009B18DB5921000098019398473D
S1132D800028EAD093E7042B06DC03AB220045A914
S1132D90009800F0FDFC5EE70D4B002B00D109E725
S1132DA003AB220045A9009800E000BF53E7A389C4
S1132DB05B0600D480E7012040427DE748987BE72A
S1132DC064FDFFFF112A0000892A0000FE43000071
S1132DD000000000936810B5013B9360002B05DAF6
S1132DE09469A34208DBCBB20A2B05D01368581CA4
S1132DF010601970C8B210BDFFF7C2F8FBE7F8B550
S1132E0006000F001400D518AC4201D1002007E0E1
S1132E1021783A003000FFF7DDFF0134431CF3D181
S1132E20F8BD0000F0B59FB006000F001400059334
S1132E30002804D08369002B01D1FFF79FFA7F4B50
S1132E409F425CD17768BB891B0762D53B69002B25
S1132E505FD0002306AD6B6120336B761033AB7605
S1132E600294029C2378002B5DD1029BE31A049305
S1132E700DD0049B029A39003000FFF7C0FF431CB9
S1132E8000D1CCE06A69049B944663446B61237867
S1132E90002B00D1C3E00122002352426A6002A940
S1132EA05432521801342B60EB60AB601370AB6585
S1132EB021780522624801F085F8631C9C460028AD
S1132EC035D12968CB0604D5532302AA20309B1898
S1132ED018700B0704D553232B2002AA9B181870D3
S1132EE023782A2B2CD000200A21099B2278303AFF
S1132EF0092A00D86BE000282AD0099328E0514B16
S1132F009F4201D1B7689EE74F4B9F429BD1F76820
S1132F1099E739003000FFF79DF8002899D0012087
S1132F2040421FB0F0BD252B9FD001349AE7444B9B
S1132F302968C01A012383400B432B606446B7E71A
S1132F40059B181D1B680590002B3ADB099364460A
S1132F5023782E2B0BD16378621C2A2B3FD1059B3F
S1132F6002341A1D1B680592002B35DB0793217868
S1132F700322364801F026F8002807D0334B2A688C
S1132F80C01A4023834013432B6001342178631C0F
S1132F9006222F480293297601F014F8002844D021
S1132FA02C4B002B2FD12968059B0722C90528D556
S1132FB09B189343083305936B69039A9B186B61C1
S1132FC04FE75B42EB6002230B432B60BFE74B43AD
S1132FD001349B18012089E701235B42C6E70023E3
S1132FE014000A201A006B6021783039092903D9AA
S1132FF0002BBCD00792BAE7424301345218012394
S1133000F2E70733D5E705AB00933A00124B2900EA
S1133010300000E000BF0390039B0133CCD1BB8997
S11330205B0600D57BE70B987BE705AB00933A0082
S1133030094B2900300000F07FF8ECE7B8430000AA
S1133040F8430000D843000098430000FE4300000A
S11330500244000000000000FF2D0000F7B5150039
S113306001938A680B6900900C00934200DA130004
S113307022002B6043321278002A01D001332B60E6
S113308023689B0602D52B6802332B60062723682E
S11330901F4027D0230043331B785A1E93412268D4
S11330A0920630D42200019943320098089EB0471A
S11330B0431C25D0062320682A68E16803400025C4
S11330C0042B03D18D1AEB43DB171D40A36822693F
S11330D0934201DD9B1AED180027BD4220D1002048
S11330E010E00137E3682A689B1A9F42D2DA220073
S11330F00123193201990098089EB047431CF0D16E
S113310001204042FEBD3020E11843310870210007
S11331105A1C45310978A218433202331170C1E7B1
S1133120220001231A3201990098089EB047431CDB
S1133130E6D00137D1E70000F0B58BB006920A0063
S113314043320793059004920A7E0C00109B6E2A6A
S113315000D18FE017D8632A2CD008D8002A00D1D8
S113316099E0582A54D026004236327029E0642A65
S113317001D0692AF7D121681A68080623D5111DE0
S11331801960156825E0732A00D188E008D86F2AF1
S113319029D0702AE7D1202209680A43226003E07B
S11331A0752A20D0782ADED1220078214532117088
S11331B06C4A30E00E001A684236111D196013681B
S11331C03370012379E04906D9D5111D1960002314
S11331D0D55E002D03DA2D23049A6D421370624BE1
S11331E00A2703932FE020681968050603D5081DF4
S11331F018600D6805E04006F9D50D68081D1860D3
S1133200ADB2594B082703936F2A18D00A2716E04A
S113321045310A70544A03921A682168101D1860D7
S11332201568080622D5CB0702D52023194321604F
S11332301027002D03D1202322689A432260230003
S1133240002243331A706368A360002B5CDB042202
S1133250216891432160002D58D1049E002B64D035
S11332602600039B42361B7833705EE04806DAD5AD
S1133270ADB2D8E709681A68080605D5111D1960AA
S1133280136862691A6006E04906F7D5111D1960D2
S11332901368A28A1A800023049E236154E01A68EA
S11332A0111D1960166800216268300000F08AFE62
S11332B0002801D0801B6060636823610023049AA6
S11332C0137041E02369320006990598079DA847C9
S11332D0431C43D0236800259B070FD4099BE06857
S11332E098423DDA18003BE0220001231932069986
S11332F00598079EB047431C30D00135E368099A0E
S11333009B1A9D42F0DBE9E7002DA9D0049E28001A
S11333103900FEF79FFB039B013E5B5C2800337082
S11333203900FEF711FB051EF1D1082F09D12368DE
S1133330DB0706D563682269934202DC3023013E31
S11333403370049B9B1B2361079B09AA00932100F4
S1133350069B0598FFF782FE431CB3D1012040422F
S11333600BB0F0BD1A44000009440000F0B5BD4C98
S11333708625A544039300234893499305AB4A93B8
S1133380BE236D0000900C0002A8B7495B004019F1
S1133390C027C15002AB5B191500B4497F00D95155
S11333A02B78002B00D15BE100F0ECFD08222B7898
S11333B0C01801934378134041D1019A6E1C252A09
S11333C000D0A8E0479345936B782A2B02D11A3B8F
S11333D04593AE1C35000A2229780B00303B092B9B
S11333E048D9A34E0322300000F0ECFD002807D09A
S11333F00123801B8340459A013513430292459370
S11334002B786E1C672B58D8652B00D3DDE0472B37
S113341038D8452B00D3D8E0002B00D11DE1252B53
S113342079D003234B930733469353E0499A0133EE
S113343001920132499262682360013A62606368D2
S1133440002B0BDD00F09EFD082123681A788018FC
S113345042780A42EAD16E1C3500A1E7862202AB0B
S113346052009B18DB5921000098019398470028CB
S1133470E8D0F0E7479B013502935343303B59189A
S11334804791A9E75B2B00D177E00FD8582BC8D11F
S1133490459A01928022019992000A434592102292
S11334A0469203226E2B14DD013212E0632B00D10D
S11334B071E0642BB5D10A22F2E7702B52D022D8E6
S11334C06E2B00D16FE054D8692BAAD100230322BC
S11334D046934B926368002B00DC78E0459B019394
S11334E05B0600D48BE04B9B022B00DD9DE003AB1D
S11334F0220045A9009800F0E7F8012800D1AFE0C8
S11335000228A9D125E0752BD5D0782BC0D0732BF8
S113351087D102233DE06368002B0FDD2368019906
S11335201A78914200D09BE0013362682360499B82
S1133530013A01930133626049938DE7862202AB1D
S113354052009B18DB5921000098029398470028E9
S1133550E4D04898002800D07BE00138A7239B00E2
S11335609D44F0BD459A0192202201990A43459257
S11335708EE7082304224693ABE7310005A800F048
S1133580C9FA459B060001934023019A13434593CE
S113359001234B939EE7459B01934023019A1343D8
S11335A045930023F5E74599CB0600D554E7039BE3
S11335B0499AC80704D5191D03911B681A804BE763
S11335C0191D03911B681A6046E70523E1E786226B
S11335D002AB52009B18DB592100009801939847D5
S11335E0002800D17AE7B4E7499A0192013249925E
S11335F06268013A6260002A0BDD0133236000F047
S1133600C1FC082123681A78801842780A42EBD159
S113361069E7862202AB52009B18DB59210000980F
S1133620019398470028EAD093E7042B06DC03AB08
S1133630220045A9009800F0ABF85EE70D4B002B83
S113364000D109E703AB220045A9009800E000BFC0
S113365053E7A3895B0600D480E7012040427DE75D
S113366048987BE764FDFFFF513E0000D13900001C
S1133670FE43000000000000F8B504000D00160031
S11336801F00002804D08369002B01D1FEF776FEC9
S11336900A4B9D4207D165683B0032002900200097
S11336A0FFF764FEF8BD064B9D4201D1A568F3E720
S11336B0044B9D42F0D1E568EEE7C046B8430000F4
S11336C0D843000098430000F7B515008A680190BC
S11336D00C00002A06D18A69511E8A4101215242F6
S11336E00A43A2602268D20603D41A68111D196025
S11336F017680026A369002B1CD0012B08D12B6866
S113370062691B78D35C002B14D1002E30D106E003
S1133710022B06D0002E2BD1A369012B28D1012026
S1133720FEBD00F02FFC08222B681B78C0184378DC
S11337301342EFD1102223680136134203D12B68C0
S11337401B783B7001372A686B6801322A60A268D3
S1133750013B013A6B60A260002A09D0002BC9DC4E
S1133760C0235B00E3582900019898470028C1D082
S113377010232268134006D1E2680132E260A26994
S1133780002A00D03B70236900209E192661C7E7F8
S1133790F0B50C008DB00293774B0590160009AA82
S11337A023CB23C2754B0693A369032B01D0744B1F
S11337B00693AE220020A3685200591E0490914241
S11337C005D95E3BFF3B04935E23FF33A3602300D4
S11337D01C330193D023002722681B011343236069
S11337E0019B0393336809A81978BB000222185877
S11337F000F0E8FB00282BD0012F5FD16368002B79
S113380006D1083322686360F933FF33134323601E
S11338105C4B226813402360A3685A1EA260002BED
S113382016D0039B5D1C33685A1C32601B78039AC4
S1133830039513707368013B7360002B08DCC0238D
S11338405B00E358310005980793984700287DD121
S11338500137032FC6D16368002B01D10A3363609B
S11338601021002763686069C91A474BC91800F022
S113387051F9039DA368002B41D032686069117827
S1133880405C00283BD0302928D1802021680001E9
S1133890014223D0049A0137002A03D0013A0133AC
S11338A00492A3607368013B7360002B1EDD3368D0
S11338B001333360A368013BA360DBE7022FABD184
S11338C0C02180232268C90011409B009942C2D1C3
S11338D0F13BFF3B6360F03313439CE721682B4BC0
S11338E00B40236013782B700135DBE7C0235B00AA
S11338F0E35831000598039398470028DAD02368E9
S1133900DB050ED5019B9D4207D9BE23013D5B001B
S11339102978E358320005989847019B01209D427D
S113392027D0102223681A401CD12A706368019999
S11339300598069EB047029B22681B68910607D52E
S113394002991A1D0A601B68186008E00027D6E770
S1133950D107F5D502991A1D0A601B681880E3681F
S11339600133E3600020019BED1A2369EF19DF198D
S113397027610DB0F0BDC0462C440000853C00001A
S1133980B53D0000FFFAFFFF38440000FFF6FFFFDB
S113399070B50500080011000022064C22601A00D0
S11339A0FDF78CFE431C03D12368002B00D02B6051
S11339B070BDC046F0020020092210B5838913406F
S11339C00022092B02D1FEF783FC0200100010BD77
S11339D0F8B505000C00002804D08369002B01D140
S11339E0FEF7CCFC3D4B9C420AD16C68002363601B
S11339F00C23E25E93B299060CD50120404268E0A4
S1133A00374B9C4201D1AC68F0E7364B9C42EDD178
S1133A10EC68EBE759074AD4D90605D409232B608F
S1133A2037331343A381E8E7082633420AD0210041
S1133A302800FEF721FC0028DFD1A389A060B3434E
S1133A40A381A0610423A2891343A3812369002BCA
S1133A5003D121002800FEF77FFD0C23E75EBEB2F0
S1133A60B3070FD00123A3811F4B20491868FEF729
S1133A70F9FC0923A7811E409E4203D1210028009E
S1133A80FEF770FB23692269236028006369216AB9
S1133A90656AA847020060600020824219DCA1899F
S1133AA0824217D120230B43A381013811E0616BBB
S1133AB00029CBD023004433994202D02800FEF7DA
S1133AC099FD0020236C606363608342BED0E36B86
S1133AD02360F8BD402360600B43A3E7B8430000B4
S1133AE0D84300009843000094430000B939000013
S1133AF0002370B5064C050008002360FDF728FE7E
S1133B00431C03D12368002B00D02B6070BDC0463A
S1133B10F002002070B50B785E2B0DD04A1C0021FA
S1133B200400451CFF3521700134A542FBD1002B54
S1133B3006D1013A100070BD8A1C4B780121EFE7D1
S1133B4001244C401100C4540D784A1C2D2D07D07B
S1133B505D2DEFD0002D01D10A00EBE72B00F1E73A
S1133B604E785D2EFAD0B342F8DC02310133C454EE
S1133B709E42FBDCE8E70000F0B51F000E0087B0B2
S1133B800590039102920C98347800F0F7F908221A
S1133B9000194378751C13400CD12D2C0CD1013322
S1133BA02C780193B51C002F0CD0102F14D1302C7D
S1133BB00AD011E02E00E6E701932B2CF3D12C78E8
S1133BC0B51CF0E7302C2FD120222B789343582BAF
S1133BD051D110276C780235019B294A39009E186F
S1133BE03000FDF737FF300004913900FDF7ACFEDB
S1133BF001210023494202008C461800210030397B
S1133C00092913D80C00A7421CDD591C09D06346AE
S1133C10824206D302D10499A14202DB01237843F4
S1133C2020182C780135E9E70A27D5E72100413926
S1133C30192901D8373CE6E721006139192901D84F
S1133C40573CE0E75A1C08D1059A23331360029BC2
S1133C503000002B0BD107B0F0BD019A002A00D030
S1133C604042029A002AF6D0039A002B00D06A1E22
S1133C70029B1A60EFE73024002FADD10837ABE781
S1133C80FFFFFF7F13B5054C2468246A002C00D184
S1133C90034C0094FFF770FF16BDC0460C000020D3
S1133CA070000020F0B51F000E0087B0059003914E
S1133CB001920C98347800F061F9082200194378D5
S1133CC0751C13400CD12D2C0CD101332C7802938C
S1133CD0B51C002F0CD0102F14D1302C0AD011E0B9
S1133CE02E00E6E702932B2CF3D12C78B51CF0E7D9
S1133CF0302C2FD120222B789343582B54D11027CA
S1133D006C780235012039004042FDF71DFE0600A3
S1133D10012039004042FDF79DFE0023049101215A
S1133D20012218008C46524221003039092913D847
S1133D300C00A7421EDD002B1ADB1300864206D3BB
S1133D4002D10499A14202DB6346784320182C78FF
S1133D500135E9E70A27D5E721004139192901D8B6
S1133D60373CE6E721006139192903D8573CE0E7DD
S1133D701300ECE7002B09DA22230120059A4042C4
S1133D801360019B002B0BD107B0F0BD029A002AEF
S1133D9000D04042019A002AF6D0039A002B00D0AA
S1133DA06A1E019B1A60EFE73024002FAAD108375E
S1133DB0A8E7000013B5054C2468246A002C00D140
S1133DC0034C0094FFF76EFF16BDC0460C000020A4
S1133DD0700000200B00F7B54D6B44330C009D427E
S1133DE01CD18026F6003100FEF74EFC002802D1DB
S1133DF001204042FEBD23006063A66346331A7867
S1133E00104BC254230045331A780F4BC2542A78FE
S1133E100E4BC254C01820600020EBE78E6B2900C3
S1133E2073001A00019300F0F5F8051EE0D087191D
S1133E3001003200380000F0D0F8019B2760656370
S1133E40A363E9E7FF030000FE030000FD03000095
S1133E50F8B505000E0014004B1C03D10126764270
S1133E603000F8BD002804D08369002B01D1FEF78F
S1133E7085FA2D4B9C422DD16C682022A389934353
S1133E801BB2A3819BB25A0713D4DA06E6D50827DE
S1133E903B420AD021002800FEF7EEF90028DDD1CC
S1133EA0A389A060BB43A381A0610423A289134317
S1133EB0A381626BF7B26368F6B2002A1BD0A26BCF
S1133EC0934211DA2368013B23601F706368013356
S1133ED06360C5E7154B9C4201D1AC68CDE7144B38
S1133EE09C42CAD1EC68C8E721002800FFF772FFA2
S1133EF00028E7D0B2E721692268002907D091425F
S1133F0005D2511E0878864201D12160DFE723647F
S1133F102300443363630323A36323004633E26330
S1133F201F7023600123D3E7B8430000D843000087
S1133F3098430000002370B5064C050008001100EA
S1133F402360FDF71AFC431C03D12368002B00D027
S1133F502B6070BDF0020020002370B5064C0500F4
S1133F6008002360FDF70EFC431C03D12368002BDB
S1133F7000D02B6070BDC046F0020020EC30006819
S1133F8070470000044B1B681B6A002B00D1034BD5
S1133F90EC3318687047C0460C0000207000002005
S1133FA082B0002900D101A9101E06D0002B06D032
S1133FB013780B601078431E984102B070470220BA
S1133FC04042FAE7C9B28218904201D100207047FA
S1133FD003788B42FBD00130F6E7002310B59A42F8
S1133FE000D110BDCC5CC4540133F8E710B588424D
S1133FF002D98B18984208D300239A4207D0CC5C8C
S1134000C4540133F9E78B5C8354013AFBD210BDED
S113401070477047F8B507000D001600002905D158
S11340201100FEF731FB04002000F8BD002A03D183
S1134030FEF7E0FA3400F7E700F01EF82C008642A1
S1134040F2D931003800FEF71FFB041EECD0290022
S11340503200FFF7C2FF29003800FEF7CBFAE3E78E
S11340600B1E04D0FF2A04D98A2303608B3B18005B
S113407070470A700123FAE70B1F1B68181F002BF7
S113408001DA0B58C01870472D2D2041626F7574EA
S1134090202D2D0D0000000050726F6A6563743A84
S11340A0200D000056657273696F6E3A20312E3010
S11340B02E300D00417574686F723A200D000000B7
S11340C0446174653A200D004D6F726520496E6637
S11340D06F3A200D000000004861726477617265D8
S11340E00D00000020204D6963726F70726F63656C
S11340F073736F723A2053414D4C32314A31384216
S11341000D0000002020504D49432F4C444F3A20CD
S1134110425132353135350D000000002020416315
S113412063656C65726F6D657465723A2048334CD3
S11341304953323030444C54520D00002020536314
S11341407265656E3A2056492D3332312D44502D17
S113415052432D530D000000202042617474657297
S1134160793A20353032353335203430306D41687A
S11341702028537061726B66756E2F313338353178
S1134180290D00002D2D2048656C70204D656E753D
S1134190202D2D0D000000004E6F74653A205465EB
S11341A0726D696E617465207573657220636F6DDD
S11341B06D616E64732077697468206E6577206C16
S11341C0696E65206368617261637465720D0000D5
S11341D068202D205072696E742074686973206D94
S11341E0656E750D0000000061202D20496E666F1C
S11341F0726D6174696F6E2061626F75742074688A
S11342006973206465766963650D000069202D205B
S113421049324320636F6D6D616E640D00000000D0
S113422071202D2052657475726E20746F206D613B
S1134230696E206D656E7520617420616E792074DD
S1134240696D650D000000004D61696E206D656E3D
S113425075203E3E207573657220696E70757420FA
S11342605B682F715D3A2000493243203E3E20496D
S1134270732072656164206F722077726974653F80
S1134280205B722F772F715D3A20000072656164A4
S11342900000000049324328000000002573257304
S11342A02573000029203E3E204932432064657670
S11342B069636520616464726573733F20307800BC
S11342C025780000257325732573253032782573EE
S11342D00000000029203E3E20493243206D6573D2
S11342E07361676520616464726573733F2030781D
S11342F0000000002C203078000000002573257396
S1134300257325303278257325303278257325308E
S11343103278000029203E3E2049324320726573E2
S1134320706F6E73653A203078000000496E7661D4
S11343306C6964207573657220696E7075740D0004
S113434077726974650000002525256973000000F3
S113435025730D0A00000000000000420004004222
S113436000080042000C0042001000420004004318
S11343709E1000009A1000009A1000000411000022
S113438004110000B4100000A4100000BA100000D2
S1134390F2100000100000200000000000000000E7
S11343A00000000000000000000000000000000009
S11343B000000000000000000000000000000000F9
S11343C000000000000000000000000000000000E9
S11343D000000000000000000000000000000000D9
S11343E000000000000000000000000000000000C9
S11343F00000000000000000232D302B2000686C1A
S11344004C006566674546470030313233343536F3
S1134410373839414243444546003031323334352C
S11344203637383961626364656600004A440000C7
S11344304D44000050440000412D46612D6638393A
S113444030313233343536375D002B2D00303000B7
S11344507858004300504F534958002E0000202044
S11344602020202020202028282828282020202020
S113447020202020202020202020202020208810E0
S11344801010101010101010101010101010040440
S11344900404040404040404101010101010104147
S11344A041414141410101010101010101010101B8
S11344B0010101010101010101101010101010424D
S11344C04242424242020202020202020202020288
S11344D00202020202020202021010101020000066
S11344E000000000000000000000000000000000C8
S11344F000000000000000000000000000000000B8
S113450000000000000000000000000000000000A7
S11345100000000000000000000000000000000097
S11345200000000000000000000000000000000087
S11345300000000000000000000000000000000077
S11345400000000000000000000000000000000067
S11345500000000000000000000000000000000057
S1134560F8B5C046F8BC08BC9E467047DD000000A4
S1134570F8B5C046F8BC08BC9E467047B5000000BC
S1134580401F00000800000001000000100000208F
S113459000000000B8430000D84300009843000026
S11345A00000000000000000000000000000000007
S11345B000000000000000000000000000000000F7
S11345C000000000000000000000000000000000E7
S11345D000000000000000000000000000000000D7
S11345E000000000000000000000000000000000C7
S11345F04300000000000000000000000000000074
S113460000000000000000000000000000000000A6
S11346104300000000000000000000000000000053
S11346200000000000000000000000000000000086
S11346304300000000000000000000000000000033
S11346400000000000000000000000000000000066
S11346504300000000000000000000000000000013
S11346600000000000000000000000000000000046
S113467043000000000000000000000000000000F3
S11346800000000000000000000000000000000026
S113469043000000000000000000000000000000D3
S11346A00000000000000000000000000000000006
S11346B043000000000000000000000000000000B3
S11346C000000000000000000000000000000000E6
S11346D061400000A13F0000000000005D440000B4
S11346E05B440000FD430000FD430000FD43000067
S11346F0FD430000FD430000FD430000FD430000B6
S1134700FD430000FD430000FFFFFFFFFFFFFFFF2D
S1134710FFFFFFFFFFFF0000010041534349490031
S11347200000000000000000000000000000000085
S1134730000000000000000000004153434949000C
S11347400000000000000000000000000000000065
S10F475000000000000000000000000059
S9031625C1
