S01200004D792050726F6A6563742E7372656355
S1130000A80B00202D010000290100002901000097
S113001000000000000000000000000000000000DC
S113002000000000000000000000000029010000A2
S11300300000000000000000290100002901000068
S11300402901000029010000290100002901000004
S11300502901000029010000511A000029010000B3
S113006029010000290100002901000029010000E4
S113007029010000290100002901000029010000D4
S113008029010000290100002901000029010000C4
S113009029010000290100002901000029010000B4
S11300A029010000290100002901000029010000A4
S11300B00000000010B5064C2378002B07D1054B37
S11300C0002B02D0044800E000BF0123237010BDC0
S11300D05000002000000000442F0000084B10B521
S11300E0002B03D00749084800E000BF0748036815
S11300F0002B00D110BD064B002BFBD09847F9E72D
S11301000000000054000020442F0000442F000091
S11301100000000010B5024B9847024B984710BDF1
S113012091020000592D0000FEE7000010B51A4AA4
S11301301A4B9A4211D01A00194B9A420DD2194AFD
S113014003339B1A9B0801339B0000221348124976
S11301508C58845004329A42FAD1134A134B9A426F
S11301600AD2D34311495B1803218B4304339B18F0
S1130170002102C29342FCD10D4AFF210D4B8B4357
S113018093600D4A53687F390B4353600B4B984778
S11301900B4B9847FEE7C046442F000000000020A8
S11301A0500000200400002050000020A403002080
S11301B000ED00E00000000000400041652D00005B
S11301C0991C0000F0B5C64600B5C024E4058022A1
S11301D05204A2601A4B8027FF059F621949996255
S11301E062615820195C0422904691431954195CA9
S11301F00126B14301252943C9B219541C38195C9D
S11302000B329143093A1143195480218904A160A6
S11302109F620D4F9F62616159215C5C4246944329
S11302205C545A5CB2432A43D2B25A541A5C4A39D7
S11302300A4051310A431A5404BC9046F0BDC046EA
S113024000280040000100C0000200C040219023AB
S1130250064AD150064B1969802252010A431A6199
S11302609A6901210A439A617047C0460018004008
S11302700004004010B5034B9847034B9847034BC9
S1130280984710BD4D02000031050000C501000073
S113029010B5024B9847024B984710BDD90800008F
S11302A075020000EFF31083036072B6BFF35F8F33
S11302B07047BFF35F8F036883F3108870470000B3
S11302C0F0B504000E4B5A78904217D0002300205A
S11302D00B4F0F2626403D0008E0013040B20428B1
S11302E00AD02033EA185278A24206D0D95D0029F8
S11302F0F3D19642F1D100E00538F0BD0020FCE7CF
S11303006C0000200020704770B504000D000A4BFB
S113031098474201094B9B189A780023032A01D07D
S1130320180070BD4001054B18188369290020008E
S113033098470300F4E7C046C10200006C000020A7
S1130340F0B585B005000F001600514B9847040026
S1130350002F62D14F4B420199180020C870D35C22
S1130360002B0ED062014B4B9B1801229A70640142
S1130370484B1C19E178E36932002800984705B01E
S1130380F0BD8B78032B0CD0424B62010C329A18CF
S113039064011C1960780021E36998470223A37063
S11303A0EDE73C4A0B000C254D5761010C31521806
S11303B05878DB6901219847002817D06201354B32
S11303C09B1805229A70033ADA70002D09DB640148
S11303D0304B1C1960788023184301212E4B984719
S11303E0CDE764012B4B1C196078F6E76401294BB7
S11303F01C190423A3706378002201920292002D39
S113040008DB8032134301A8037201234372234B98
S11304109847B4E70F221340F5E7012F0AD0022FC3
S11304201DD0032F2CD042011A4B9B1806229A7020
S1130430DA709CE7174B420199180220C870D35C0C
S1130440002B05D06201134B9B1805229A708EE78E
S113045002228A70002128000F4B984787E70D4B32
S1130460420199180420C870D35C002B05D06201A6
S1130470084B9B1801229A7079E702238B707EE760
S11304804201044B9B1800229A700532DA706EE721
S1130490C10200006C0000201D160000E9170000D6
S11304A0F0B5C64600B504001D4B9847060045014B
S11304B00C351C4B5D19290020001B4B9847C0B21A
S11304C008280AD001212000184DA8478020204385
S11304D00121A84704BC9046F0BD00212000134B25
S11304E0984698478027274300213800C047720167
S11304F00C4B9B1801229A705B69290020009847D5
S11305000028E7D17601074B9E190523B37001211A
S11305102000064CA04701213800A047DAE7C04676
S1130520C10200006C0000207D1700001D160000B1
S113053010B5104B984700281BDB0F4C802200217C
S113054020000E4B984723008034FF210C4A597039
S11305505A619A61DA612033A342F8D10949002033
S1130560094CA04709490120A04709490220A04796
S1130570002010BD451000006C000020BF2D0000BD
S113058005030000A1040000211A00000903000073
S11305904103000010B5014B984710BDFD19000040
S11305A010B5014B984710BD31110000F8B5050096
S11305B00E0017000F4B9847002814DAFF200D4B4C
S11305C09847041E12DB3A00310028000A4B984772
S11305D0002807DB094A640113195D7003231E40D8
S11305E0A6540020F8BD14204042FBE715204042E9
S11305F0F8E7C046C10200003D1100006C00002075
S113060010B582B200210020014B984710BDC046AE
S1130610AD05000070B50500064B9847041E07DBC6
S11306202800054B98476401044B1C19FF23637091
S113063070BDC046C1020000691200006C000020B9
S113064070B504000E4B9847051E15DB43010D4A97
S11306509B5C5A425341013341010A4A5218937038
S11306602000094B9847002800DB70BD6D01054B45
S11306705D190023AB70F8E712204042F5E7C0464D
S1130680C10200006C00002039130000F0B5D6460A
S11306904F464646C0B586B00400077A3800404B42
S11306A098470500667A63689846002800DA71E086
S11306B004A83C4B98476A013B4B9B189A78172334
S11306C06B441A701B78012B10D004A8374B984741
S11306D017236B441B78DBB2052B5ED0062B23D08B
S11306E00120002B3CD11320404239E02E4B994687
S11306F06B019A464B46534403229A7004A82B4B31
S113070098474B465246D35C002B10D0237A721E76
S11307109641F6B222680192424602927FB2002FBD
S113072017DB0F22134016E01020404218E06B0143
S11307301D4AD218D17C0902937C5B189BB2002B12
S113074014D10423937000220126237A2168019195
S113075002928022134301A803724672144B9847F5
S113076006B01CBC90469946A246F0BD42469A4249
S113077000D91A006D010C494D19297B7F2905D830
S1130780237A2168019102920026CAE79A42B6416F
S11307907642DAE712204042E2E70220E0E7C04670
S11307A0C1020000A50200006C000020B30200009A
S11307B0E917000070B50400002905D0012921D0F3
S11307C00221134B984770BD124B9847051E1CDB42
S11307D0022120000E4B98470028F4D0002120006D
S11307E00B4B98470028EEDB6D010B4B5D19012381
S11307F0AB700233EB70EB690022032120009847B1
S11308000020E0E7024B9847DDE712204042DAE798
S11308101D160000C10200006C00002070B50D0020
S113082014000F4B98470300221E08D0002B05DB51
S1130830012D0BD0002D04D0022D0CD070BD094A1F
S1130840F4E74001084B18184261F7E74001064BF2
S113085018188261F2E74001034B1818C261EDE7F2
S1130860C1020000050300006C000020002800D134
S113087000BE70470368002B0AD08B420AD01B6865
S1130880002B03D09942FAD1012000E000207047E8
S11308900020FCE70120FAE770B505000E000468AB
S11308A00A4B984701235840C0B24F220849094BCC
S11308B098472B68002B03D12E60336005E01C00A1
S11308C02368002BFBD12660336070BD75080000DF
S11308D0D02D00006D08000010B5094B5A685A600D
S11308E00220084B9847084B9847084B9847084BF9
S11308F09847084B9847FF20074B984710BDC046C0
S113090000400041A7090000550900006D090000DE
S113091041090000A50900001D090000C30707D50F
S1130920044A054B1A621900044A4B681342FCD16D
S11309307047C0460601010000180040FD07000092
S1130940034B08229A71043A5A71033A1A71704798
S113095000040040044BDA69F82149010A40DA61D5
S113096001221A617047C0460010004082220C4BDD
S11309701A7518003821803A435C1342FCD10849A7
S11309801022CB681A42FCD0054A137D80210B4308
S11309901375100048390E22435C1342FCD1704792
S11309A0000C004070478023DB059B780322134032
S11309B098420CD08022D205FF23937193780321AF
S11309C08B430840184390709379002BFCD07047F8
S11309D00020704770B5837C0F221340C17C083A15
S11309E00A40012A0BD05A011A498C46624410214C
S11309F0D1715B01184A94466344197070BD4A066C
S1130A000FD5C27C40218A43C2745A018224E40572
S1130A10A446624480258224640015550624FF34CC
S1130A201155C27C08218A43C2740C495A018C189E
S1130A300025A572A5761300064CA44663446F24D2
S1130A40DC71054B9C4662441470807C8B6E984725
S1130A50D4E7C0460001004108010041EC00002039
S1130A6010B520228A40D2B2817C0F230B405B0157
S1130A7005498C4663441A708268807C034B1B6F63
S1130A800121984710BDC04608010041EC00002038
S1130A9010B5837CFF2B02D0C27C520600D410BD5B
S1130AA0C27C4024A243C27482680248046F1800C6
S1130AB0A047F4E7EC00002030B583B0837C01ACA0
S1130AC02525257025356570FF2B1BD0C47C640655
S1130AD018D50F242340002916D05C010E4DAC46D6
S1130AE064448025257101AC645C59010A4DAC460F
S1130AF06144CC715B0109498C4663441C7011004C
S1130B00074B984703B030BD5C01034DAC466444C9
S1130B1040256571E7E7C046000100410801004136
S1130B20910A000070B582B0837C0F22134001AAA1
S1130B3004241470043454705D01002932D01A0066
S1130B40083252018224E405145D6406640F0A012C
S1130B505219304DAA18957AEDB2022C2BD0AC075D
S1130B6042D5C57C947A0226B443947201AA545C9B
S1130B705A01294EB4466244D4715B01274A944613
S1130B8063441C7007232B40012B40D1C37C5B06BC
S1130B903DD5C37CDB09994239D000221900204B92
S1130BA0984734E01A00083252018224E405145DA7
S1130BB007221440CBE7EC07D1D5947A0125AC4346
S1130BC0947201AA545C5A01134DAC466244D47128
S1130BD05B01124A944663441C704B1E9941C9B28E
S1130BE004220F4B984712E05A0052181201094888
S1130BF082180020907201AA515C5A01064884466A
S1130C006244D1715B01054A94466344197002B091
S1130C1070BDC046EC000020000100410801004105
S1130C20B90A0000F0B5C64600B50C4D2C0074346A
S1130C302935FF350A4B9846FF270026032120005B
S1130C40C047A774E6741434AC42F7D16022002183
S1130C500248044B984704BC9046F0BDEC000020C9
S1130C60910A0000BF2D0000F0B5C64600B504008F
S1130C700E00837C0F251D40002900D1AAE06A01E3
S1130C805A4B9B1858698004800C238A584A934213
S1130C9000D19AE0013B9AB2E37C07271F40002E63
S1130CA005D06B0153498C4663440221D971A36872
S1130CB0C118A160636899424AD25B1A9BB2E27C74
S1130CC0920635D5228A101C92B29A4200D9181C79
S1130CD083B2984623689C4661444246E068464B8A
S1130CE09847E1686A01414B9B1819616A013F4BBF
S1130CF09B185A6941468904890C920B92030A4352
S1130D005A615A693D490A405A61002E07D1012FA0
S1130D1059D04A226B013A498C4663441A706D01DA
S1130D20344B9C46654480236B7104BC9046F0BDF3
S1130D301A1C80208001834201D9324B1A8893B255
S1130D409846236859186A01284B9B181961CDE706
S1130D50E37CDB060FD5E37C10229343E3746A0142
S1130D60224B9B185A69920B92035A615A69234980
S1130D700A405A61C9E7012F0ED06D01224B9C46EF
S1130D8065444A232B70218A024091420BD00021F2
S1130D9020001E4B9847C8E76D011B4B9C466544D9
S1130DA04B232B70EFE7E37C40229343E374A07C56
S1130DB00E4BDB6EA16898470028B6D1E37C402235
S1130DC01343E374E3E74E22A4E7E77C07231F40C1
S1130DD0074A66E7038A064A0020934200D059E78F
S1130DE0E37C07271F400020014A60E7EC00002055
S1130DF0FF03000000010041AD2D0000FF3F00F0A3
S1130E0009010041EE2D000008010041910A000093
S1130E10F8B5DE4657464E464546E0B504008846DA
S1130E20837C0F251D40002957D06A017D4B9B18F8
S1130E305A681201920C92465F68BF04BF0CBB460D
S1130E40068A794B9E4200D1CDE0013EB6B25F46A0
S1130E503740E37C07221A4091464346002B05D0D5
S1130E606B01724A944663440122DA71E37C9B0667
S1130E700FD56368002B39D0A0681B1A9BB2226877
S1130E8094466044E1681A00BB4200D93A00684BBA
S1130E9098476368002B29D04246002A42D0228A10
S1130EA0BA423FD9E37C10229343E374A3685B44C2
S1130EB0A3604B46012B00D187E06B015D4A944649
S1130EC0634425221A70002D02D1564BE2681A6041
S1130ED000212000584B984759E0068A524B9E4205
S1130EE000D18EE000239B469A46AEE7E37CDB0606
S1130EF000D47FE0E37C1022934320221343E37465
S1130F00484A6B01E1689950218AD3185A688904C8
S1130F1009094A4802400A435A605A68920B9203EC
S1130F205A6022E0A2685244A2609342C1D99B1A3B
S1130F309BB2E17C890630D5228A111C92B29A4276
S1130F4000D9191C8BB2E0686A01364950506A0115
S1130F50344989184A689B041B09384802401343E2
S1130F604B604B689B0B9B034B604346002B08D1A3
S1130F7025224B46012B2FD06B0131498C4663440B
S1130F801A706D01294B9C46654440232B713CBC6F
S1130F9090469946A246AB46F8BD218A8B420AD9AF
S1130FA0802189018B420DD8B34321688A186901D5
S1130FB01C480A50CBE78B42F7D2E17C2020014346
S1130FC0E174F2E780239B01EFE76B01194A944631
S1130FD063442D221A7076E76A01124B9B18002293
S1130FE09A762D32C8E7BF05BF0DC37C07221A408D
S1130FF0914635E74346002B0CD1A3685344A360C4
S113100057E7C37C07221A409146002700239B46DA
S11310109A462BE7238ABB4200D943E7A36853448B
S1131020A36046E7EC000020FF030000000100413C
S1131030AD2D000008010041910A0000FF3F00F0BF
S11310400901004110B58223DB059B78DB0724D41A
S11310508221C90503228B781342FCD18223DB054C
S11310601B789B0710D58222D205137802218B436B
S11310701370110003228B781342FCD18221C9051D
S113108002228B781342FCD101228223DB051A70E1
S1131090190002328B781342FCD18221C905012246
S11310A08B781342FCD11E4B1E4A1A665A669A6606
S11310B0DA661A671C4B98471C4B1B685A0B1F2196
S11310C00A40980C01409B015B0F1F2A21D01F2965
S11310D021D0072B21D092010A431B031343822200
S11310E0D2051385D37803210B43D370D3780C2115
S11310F00B43D37004231370110003228B78134223
S1131100FCD18223DB05064A5A6201221A8100209F
S113111010BD1A3ADBE70239DBE7023BDBE7C046E6
S1131120EC000020D1090000250C00001C608000A8
S1131130802318438223DB0598727047F0B50F248F
S1131140044043B29C46002C54D02500002B07DBFE
S1131150032319402700022C50D91220404225E0D5
S1131160A51CF5E76346002B21DB7B00DB199B0004
S11311703B4C1B59002B66D17B00DF19BF00384B59
S1131180FF58384BAE007419A4001C198034276032
S113119060337419A4001C19A2842734013121700E
S11311A07519AD005B19263318700020F0BD7B0063
S11311B0DB199B002A4CE3185B68002B06D17B00EB
S11311C0DF19BF00264BDF197F68DAE77B00DB19E4
S11311D09B00234CE3185B899342F0DA13204042CE
S11311E0E4E714204042E1E714204042DEE7132004
S11311F04042DBE70323194000250027AB005B19BD
S11312009E00184B9B1986331B78FF2BE9D10029CC
S1131210A8D1002C04D06346002B01DB0234E4B2D5
S1131220A3001B199B000F4CE41886342378FF2B72
S1131230DAD17B00DB199B00094C1B59002BD6D05B
S11312406346002BB3DB7B00DB199B00044CE318E3
S11312501B89934200DB8FE713204042A6E7C04678
S1131260F02D0000EC000020F8B505000F24044028
S113127047B2002C10D02000002F02DB022C02D930
S1131280F8BDA01CFAE7060001308300181880009E
S1131290274B6033181802E0254874300026B30049
S11312A09B199A00224B9B1886331B78FF2BE7D09F
S11312B0F90F03221F4B9847B3009B199A001C4B4C
S11312C09B188033DA7907231340012B1CD0002F9D
S11312D021DB6D018223DB059C466544802252009C
S11312E0AB5C07218B43AB54114B6033B1008A19BB
S11312F092009A182732002010708E19B6009B199C
S11313002633FF221A70BBE708356D0100228223C1
S1131310DB05EA54E8E764018223DB059C46644468
S113132080225200A35C70218B43A354DCE7C046A7
S1131330EC000020B90A0000F0B5C64600B50F2243
S1131340024040B2002A00D195E0130000280CDBD3
S11313501100083252018224E405155DEDB2022920
S113136000D890E012204042E9E0931CF0E7763286
S11313702A4277D18222D205904644441120802209
S11313805200A0549A00D2189500A04A6032521913
S1131390928C95039E48054080208000824200D9AB
S11313A0D0E00138FF38824200D917E1802A00D901
S11313B004E1402A00D919E1202A00D906E1102AC3
S11313C000D91BE1F838904280414042060735437A
S11313D07D609504AD0CBCE070222A4245D18B4857
S11313E09E00F218920082188032D2795207520E6F
S11313F015438222D2059446644480225200A554A7
S11314006030F618B6008019808C8504AD0C01326A
S1131410FF320723904214D8013AFF3A013B90422D
S11314200FD8013B80280CD8013B402809D8013B48
S1131430202806D8013B102803D8F83A824292416A
S113144053421B072B437B61802282235B00E254BF
S113145049016E4B591800238B7600206FE012204F
S113146040426CE01420404269E01420404266E0AF
S11314701420404263E080235B008222D205D55CC5
S1131480EDB2002100239A00D21894005F4A121989
S1131490863212789446FF2AE1D04C015B4A171930
S11314A09E00F618B60092198032D679072232408F
S11314B0012A00D15BE700288EDB6A07D8D15348A4
S11314C09E00F218920082188032D2795207520F8D
S11314D015438222D2059446644480225200A554C6
S11314E06030F618B6008019858CAB034848184064
S11314F00132FF320723954214D8013AFF3A013BE7
S113150095420FD8013B802D0CD8013B402D09D8C2
S1131510013B202D06D8013B102D03D8F83AAA42EE
S1131520924153421B0703437B6040220623FF334F
S1131530E2544901354B591800238B72002004BC36
S11315409046F0BDE020C00505437D609504AD0CD8
S113155007200007284378610625FF354026665595
S113156082277F008020E055284849014118002443
S11315708C728C760F3461460C409900C91889002E
S113158041188031096863011950C01841689204F8
S11315901409204A0A40224342604268920B920393
S11315A042608222D2059A18B021D15556551A4A62
S11315B09446634410221A700020C0E7A020C0059E
S11315C005437D609504AD0C0520C2E7C02080056D
S11315D005437D609504AD0C0320BAE7C020C00527
S11315E005437D609504AD0C0620B2E78020C0055C
S11315F005437D609504AD0C0420AAE78020800596
S113160005437D609504AD0C0220A2E7EC000020A8
S113161000C0FF0FFF3F00F009010041F0B50F23A8
S1131620034040B2C40F002B09D01A00002804DB89
S1131630022B05D91220404219E09A1CF8E7002237
S1131640012915D0002936D093009B189B00474AE6
S1131650D218863212780F2313405B01444A944611
S1131660634498791023A3401840431E9841F0BD69
S11316701025A540EDB23D49900083189B00CB187E
S113168086331E780F2333405E01394FBC466644CF
S113169075712025A540ECB25B01364DAC46634420
S11316A01C70821892008A188032D37908210B4367
S11316B0D3710020DBE793009B1899002B4B5B1838
S11316C086331B780F210B405D018221C9058C46AE
S11316D06544832149006E5CF639A14000200E4226
S11316E0C5D0C9B20530FF3029542021A140C8B269
S11316F05B01214EB446634418700823FF33EB5C4E
S11317000B4209D00823FF33E854073BFF3BA340B7
S1131710DBB2822149006B5493009B189900134B50
S11317205B188033D97907230B40012B0BD093002E
S11317309A1892000D4B9B188033DA7908218A435A
S1131740DA71002093E70633FF33E95CD63B0020CF
S1131750194200D08BE793009A189200034B9B1810
S11317608033DA7908218A43DA7180E7EC000020BB
S113177000010041090100410801004170B50D005C
S11317800F2318404401164B1B1919685B689B040E
S11317909E0C02281BD8002D1CD08223DB059C46FE
S11317A0644480235B00E35C112B16D10823FF33D0
S11317B0E35C0020DB0600D470BD08222800094B3E
S11317C0984710220823FF33E2543000F4E7122034
S11317D04042F1E712204042EEE713204042EBE79B
S11317E0EC000020AD2D0000F0B5DE4657464E4615
S11317F04546E0B585B08046067A0F23334076B27D
S1131800002B00D1D3E01800002E39DB0400734A0A
S11318106032411C8D006D18AD0055198100091806
S113182089005218918C6E4A91422BD04F1EBFB240
S1131830424652681740022B00D9A4E043461B6875
S11318406848834220D998180190674884460198D3
S1131850604519D89B0717D1002E32DB914200D97D
S1131860AFE0002F30D0A3001B199A005B4B9B18EC
S113187080331B68002B00D18BE0002399460FE0D6
S1131880981CC3E70F00D3E7A3001B199A00534B1E
S11318909B1880331B68002B00D177E00123994605
S11318A0A3001B199A004D4B9B188033DB7902204F
S11318B01B070CD505B03CBC90469946A246AB46E6
S11318C0F0BD00239946EBE700239946E8E703A817
S11318D0464B9847A3001B199A00404B9B18803332
S11318E0DB795B0644D4A3001B199B003B4A934657
S11318F09B4480235B449A46DB794022134352463F
S1131900D37103A83A4B98475B46424612685A671C
S1131910424652689A6700235A46D367F20FD201AF
S11319205346D9797F230B4049464901134320226A
S113193093430B435246D37143465B7A0022002BF8
S113194002D07A427A41D2B2A3001C19A400234BDC
S11319501B1980331201DF7910218F431743DF7184
S1131960002E0ADB00212800224B98470020A1E723
S113197003A81F4B984701209CE7002128001E4B19
S11319809847002096E71220404293E713204042F4
S113199090E7122040428DE7132040428AE74346F5
S11319A05A689705BF0D0D4D7435002446E70B4A60
S11319B06032918C0A4A9142F1D0084D743500246A
S11319C034E7A3001B199A00044B9B1880331B684F
S11319D0002BE1D00123994662E7C046EC000020C9
S11319E0FF030000FFFFFF1FFF2F0020A5020000E0
S11319F0B3020000110E0000690C00000B1E06D09B
S1131A00012806D0002801D1034A13667047034B0E
S1131A10F6E7014A5366F9E7EC000020D10900001B
S1131A200B1E08D0002808D0012809D0022806D1AE
S1131A30054A136703E0054BF4E7034A93667047CE
S1131A40014AD366FBE7C046EC000020D109000040
S1131A50F8B58223DB051E8CB6B2002E03D0834C6E
S1131A6074340025C0E0998B1B8B0B405A0718D4A3
S1131A709A051ED41A0641D470221A4248D11A0774
S1131A8064D4DB07EBD58223DB05794A9A839A82F7
S1131A90923AFF3A1A83754B5B6E002104209847F3
S1131AA006E004228223DB059A83704B1B6E984761
S1131AB0F8BD8223DB056E4A9A839A82923AFF3AF2
S1131AC01A836A4B1B891B071B0F032B0CD0674B14
S1131AD01B8D1B071B0F00216F3A032B05D0634B93
S1131AE05B6E03209847E3E7002252015F4B9B188B
S1131AF019894904490D00221A81F0E780228223C2
S1131B00DB059A83594B5B6E002105209847CFE78C
S1131B108223DB059A839A82554A1A83554B1B8B81
S1131B205B070CD5534990221201CB6813409342B2
S1131B30FBD14E4B5B6E002102209847B8E74D491C
S1131B4080225200CB681342FCD0F2E78223DB05EB
S1131B500021802252009954F83A9A8368329A827A
S1131B60434A1A83444B9847404B5B6E0021012043
S1131B7098479DE7CB0607D44B0608D48B062ED591
S1131B8000213E4B98472AE03D4B984727E001212E
S1131B903A4B984723E04B060ED40B0710D48B071F
S1131BA012D407231A40012A19D14B0710D4CB06AB
S1131BB015D5334B984712E00121304B98470EE07E
S1131BC00121304B98470AE001212F4B984706E04A
S1131BD000212C4B984702E00021284B98470135FF
S1131BE01434092D00D163E72000A17CFF29F6D02D
S1131BF00F230B40012199400E42F0D05901234F8D
S1131C00BC466144C9795B01214FBC4663441B78DF
S1131C101940E4D0AB005A199200144B9C4662441C
S1131C207032D27D47231340012BA3D053B2002B33
S1131C30B1DB8B06D0D44B070CD4CB070ED40723CF
S1131C401A40012ACBD10B070CD4CB06C7D50C4BB9
S1131C509847C4E700210B4B9847C0E701210D4B7F
S1131C609847BCE70121074B9847B8E7EC000020F0
S1131C7001020000000C0040250C0000610A000075
S1131C80D5090000250B0000690C0000000100418B
S1131C9009010041110E000010B5014B9847FEE701
S1131CA01501000003000E331BD003000E330ADDC0
S1131CB003000A330FD0031D19D1104B06229A706A
S1131CC022329A810CE0113011D10C4B07229A7008
S1131CD020329A8104E0094B02229A7038329A81A8
S1131CE07047064B05229A701C329A81F8E7034B21
S1131CF005229A701B329A81F2E7C0460000002048
S1131D0010B5074B02221A74587800230B32054988
S1131D101431054CA04743425841C0B210BDC046DF
S1131D20D402002000000020FD26000010B5074B5F
S1131D3000221A7419001431987800232032044CBC
S1131D40A04743425841C0B210BDC046D40200204F
S1131D50FD26000070B50C7863069B0F012B42D161
S1131D600E794B791B022D4D2D7833439D423DD185
S1131D7064B2002C1CDB4B78FF2B45D18A78CB78DE
S1131D801B02134343D18A79CB791B02134341D1FC
S1131D90224C237460780121214DA847A0780121A9
S1131DA0A84700230022002100201E4CA04770BD3C
S1131DB0012A1ED04B78FE2B1DD18A78CB781B02CA
S1131DC013431BD18A79CB791B02134319D01A1CF4
S1131DD01BB2002B00D0012292B200230F49033121
S1131DE0104CA047E3E70A204042E0E70A204042C3
S1131DF0DDE70020DBE70D204042D8E70D2040421C
S1131E00D5E70D204042D2E70D204042CFE70D2018
S1131E104042CCE70D204042C9E7C046D40200202E
S1131E20B5070000FD26000010B520240122154B43
S1131E301A55154B9847154B1B5D7F2B06D8114B34
S1131E40DB69002B14D1124B984710BD0D4BDB6995
S1131E50002B0AD00D4B01221A74587801210D4B26
S1131E60984743425841C0B2EFE7094B9847ECE723
S1131E70064B01221A7498780121064B98470120D9
S1131E80E3E7C04600000020A51C0000D4020020A7
S1131E90011D0000B507000010B52023074AD35CDC
S1131EA0DB09834204D00D204042054B984710BD06
S1131EB0D3698B42F7D10020F9E7C046D402002051
S1131EC0291E0000F8B5CE46474680B54F4B1B7C13
S1131ED0002B07D00124012B4CD020000CBC9046D1
S1131EE09946F8BD494B25229E5C01329A5C904686
S1131EF027229F5C01329A5C91462A229D5C2D0226
S1131F0001329A5CAD1869022322985C2838424257
S1131F104241D0B23E4B9847041EDED131064346BF
S1131F201E04891949443F02C9192323374AD35C43
S1131F30282B07D02A2B13D01B204042354B98471F
S1131F400400CAE7536B002B5AD021222F48805C2F
S1131F502A0098470028F1D101222C4B1A74BCE7BF
S1131F602A4B9B6B002B4ED021222848805C2A00F0
S1131F709847EFE700282BD0274BDB6901249842D0
S1131F80ABD8224AD2689042A7D81B1A2249CB6107
S1131F90121A1E4BDA601FD15A74DB6B002B03D06C
S1131FA021321A49885C98471B4BDB690024002BBB
S1131FB000D092E72333154AD35C282B00D08CE75A
S1131FC00021083B144AD154144B9847040084E779
S1131FD0124B9847040080E70C4B59680918596064
S1131FE023201B5C282B08D0084B987800230C4C2A
S1131FF0A047441EA041C4B26FE7044B5878F5E7EC
S11320000A2040429AE70A20404297E7D40200207F
S1132010991E0000291E000000000020011D000080
S1132020FD26000010B5052927D0032907D0144B3D
S11320301B7C012B12D00120022B1BD010BD104B96
S11320401B7C032B05D00120002BF7D00D4B9847A8
S1132050F4E702390C4B98470120EFE72233084993
S1132060CB5C282B02D0074B9847E7E71000074BBF
S11320709847E3E7064B9847E0E70120DEE7C046D0
S1132080D4020020011D0000B5070000C51E000099
S11320902D1D0000F8B5CE46474680B5160001292F
S11320A051D0002908D0022900D16CE00D20404213
S11320B00CBC90469946F8BD87681068002865D026
S11320C082784379082B64D13B789A4264D0FF2B01
S11320D065D13A7005227168354B9847041E2CD09F
S11320E0344B9846344B994610E07D702800324BAF
S11320F098477878314A0221314B984734602078E8
S1132100201871682F4B9847041E16D0A578637960
S11321101B022279D21892B2E1782800C047002825
S113212040D16BB2002BE0DBBD702800C847B87803
S1132130254A0221224B9847E0E70122234B9A7457
S1132140234B9847B4E78468002A03D013685B796B
S1132150082B2AD12378FF2B01D0FF23237060782A
S1132160FF2803D01B4B9847FF236370A078FF28F8
S113217003D0184B9847FF23A37000232374637480
S1132180A374002094E71B20404291E70A204042B8
S11321908EE70A2040428BE71220404288E71C2049
S11321A0404285E71420404282E70A2040427FE70C
S11321B0192C0000AD050000410600002520000098
S11321C01D0800004F2C0000D9210000D40200207B
S11321D02D1D00001506000070B5052900D152E13F
S11321E003291FD0A94B1B7C002B00D043E11F2ADD
S11321F004D1A74BA54A52699A4224D0A34C032385
S1132200237401211D33A34AD1540D204042A24B13
S1132210984760780121A14DA847A0780121A847DB
S113222001202BE1994B1B7C032B04D0002B07D1FD
S11322309B4B984722E10239984B984701201DE1B6
S1132240984B98471AE1934A904B99699161D869E0
S1132250D0612322995C2A2900D988E08B00924A14
S1132260D3589F462023894AD35C7F2B24D9874B9C
S11322701B6C002B28D021228449885C9847011EBE
S11322801FD0824B01221A7400241F3281488454C7
S1132290DB69242B02D904327C4BDA617B48C269A6
S11322A07C4CE3699B1AE361407800237F4CA04790
S11322B0431E9841C0B2E1E00D2040427C4B984758
S11322C0DCE074492431DCE772492431D9E7082180
S11322D00120784B9847002800D0CFE06B4B5B6C13
S11322E0002B21D021226949885C9847011E1BD00C
S11322F0664A0123137403791B06407900041B18F2
S1132300C8791B18887900021B189360614B002060
S113231020241855D861507800230822634CA04724
S1132320431E9841C0B2A9E001242023594AD45441
S11323300A204042584B9847544B1C74587821004B
S1132340564B9847030058425841C0B296E01F20AC
S1132350594B984792E000210020564B984700289B
S113236000D08BE02723494AD35C002B04D01B20E8
S113237040424F4B984781E0464B002220215A545B
S1132380DA61484B984779E000210020494B98478F
S1132390002873D127233D4AD35C022BE7D1936CE9
S11323A0002B14D021223949885C9847002807D192
S11323B0384B002220215A54DA613A4B98475DE0A9
S11323C001212023334AD154334B9847F5E70121A7
S11323D02023304AD1540A2040422F4B9847ECE73F
S11323E020232A4AD35C7F2B18D90122274B1A7445
S11323F000212023274AD154122802D91222234B28
S1132400DA61224BDA692349801AC86158780023BB
S1132410264CA047431E9841C0B22FE00D204042F5
S1132420234B98472AE000210020224B984700289C
S113243024D1164BDB6C002B14D021221349885C69
S11324409847002807D1134B002220215A54DA61FF
S1132450144B984712E0012120230E4AD1540E4B0D
S11324609847F5E7012120230A4AD1540A20404223
S1132470094B9847ECE70120012B00D070BD1000F8
S11324800D4B9847FAE70120F8E7C046D402002034
S11324905553424300000020A51C0000B50700006E
S11324A02D1D0000011D0000142E0000FD2600005B
S11324B0291E0000991E0000C51E000010B504006E
S11324C00A4B984701280ED809480A4B4365806592
S11324D0C4705030084B9847084948310120084BD4
S11324E09847002010BD11204042FBE7092C000052
S11324F0D402002095200000F12B000000000020F1
S1132500592B000006281FD88000114B1B589F46EA
S1132510104B1964002070470E4B59640020FAE7F1
S11325200C4B99640020F6E70A4B59630020F2E74C
S1132530084B99630020EEE7064BD9640020EAE7D4
S1132540044BD9630020E6E70D204042E3E7C04690
S1132550C02E0000D402002010B5064B1C69002CCC
S113256007D0002201212000636898472468002CCA
S1132570F7D110BD3003002070B506000D00074BE5
S1132580DC68002C03D170BD2468002CFBD0636888
S1132590002BF9D0290030009847F5E730030020DC
S11325A0F8B507000E0015000D4B9C68002C04D1F3
S11325B0002011E02468002C0DD06368002BF9D0B2
S11325C02A00310038009847002806D00A30F1D09C
S11325D00120404200E00020F8BD0120FCE7C04695
S11325E03003002010B5064B5C68002C03D110BDED
S11325F02468002CFBD06368002BF9D09847F7E7D8
S11326003003002010B51400002903D0012929D07B
S1132610002010BD1378002BFAD15378052B11D06C
S1132620092BF5D19278124BDA76A378E178090276
S113263019434B1E994103310D4B997601200D4BE3
S11326409847E5E790780C4B9847A378E17809021E
S113265019434B1E99410231054B99760120054BD4
S11326609847D5E7012221000020044B9847CFE783
S11326703003002079250000A1050000A1250000F9
S113268010B50D4B98470D4C0223A3760023E37637
S1132690637700200A4B9847207F0A4B98470A4AE1
S11326A000210020094CA047094A02210020A0472C
S11326B00020084B984710BD592500003003002026
S11326C01506000001060000192700001D0800007F
S11326D0052600004106000010B5002802D001289C
S11326E004D010BD0020034B9847FAE7024B9847EB
S11326F0F7E7C046792500008126000010B584B0B4
S113270001AC01910292207263722000014B984740
S113271004B010BD8D060000F0B5C64600B584B007
S113272005000C000022B54B9847431C0DD0012333
S113273001280BD022781F23110099430BD0CBB270
S1132740802B00D1F8E0002300E00023180004B03F
S113275004BC9046F0BD63780B2B00D9E4E19B00E8
S1132760A749CB589F460123002200212800A54CED
S1132770A04743424341DBB2E8E7A278002A1AD0DB
S1132780A14B1B6859681868A04B9847002800D1D2
S1132790D4E1C3781B028178C91889B24118039126
S11327A004229B4B98470290002806D0FF24964FA2
S11327B0974B98461AE0974B984701230022002133
S11327C02800904CA04743424341DBB2BEE73400AB
S11327D000E0340002980378C0180290039B019330
S11327E004221900C04702900028E6D08678A64249
S11327F0F0D03C69002CEAD002AA002120006368D2
S113280098470028E5D02468002CF5D13400E1E78E
S11328101F231A400023022A98D1A379E2791202D5
S11328201A430023002A00D090E7207900217A4B34
S113283098470123002200212800724CA04701235D
S113284084E71F231A400023022A00D07EE7A379DD
S1132850E27912021A430023002A00D076E7207995
S113286001216D4B98470123002200212800654C6B
S1132870A04701236AE7A378E5782D021D43237955
S1132880647924021C43604A1368D27E596818682C
S11328905E4B9847002847D00290C3781B0281788A
S11328A0C91889B2411803910422594B984700284A
S11328B03CD0574E08E002980378C01802900422D6
S11328C00399B047002833D08378A342F3D1C37867
S11328D0AB42F0D102904C4B1E69002E2AD002AAC2
S11328E00121300073689847002804D03668002E10
S11328F0F5D100232AE7736802AA00213000984723
S11329000023002800D021E7002D05D03E490122F4
S1132910A2404B7F13434B77002300220021002069
S1132920384CA047012311E700230FE700230DE7EC
S113293000230BE7002309E76378062B33D0D9B2D1
S1132940062922D9082B00D1AFE00A2B00D0EDE0F4
S11329502D4B5A7F217963791B020B431A41D3070C
S113296000D4CAE0284B1D690023002D00D1EDE6F8
S11329702200022128006B689847002800DBC8E089
S11329802D68002DF4D10023E0E6002B00D0CDE02B
S11329901F231A40D3B2012B00D892E0022A00D19F
S11329A09FE00023D2E6A378E27812021A43130AC6
S11329B0022B33D0032B56D0012B01D00023C5E6C4
S11329C0A279E3791B0213431A1C122B00D9122299
S11329D094B20D4B1B685968186801220C4B984738
S11329E0002800D1A4E00023220001002800054CA7
S11329F0A04743424341DBB2A8E6C046A1250000FC
S1132A00DC2E0000FD26000030030020952C000081
S1132A10192C000059250000B5070000A379E679B8
S1132A2036021E43464B1F7F1B680132D2B25968DF
S1132A301868444B9847011E7CD0C3781B028478E5
S1132A40E418A4B20023A64205D9013F3E407342D4
S1132A507341DBB22600320028003B4CA0474342BE
S1132A604341DBB272E6A379E179090219430C0010
S1132A70334B1E7F1B68D2B259681868334B984792
S1132A80011E59D002780023944206D9731E2340B4
S1132A90180043424341DBB21400220028002A4CB0
S1132AA0A04743424341DBB250E6254BDA7E5969E5
S1132AB00A705969002301222800234CA0470123EE
S1132AC044E6002302931E4C022202A96069204BB3
S1132AD0984761690023022228001B4CA047012368
S1132AE034E6207902211B4B9847002803DB01239D
S1132AF018400290E7E7002328E6114B00225969A9
S1132B000A7059690023013200200F4CA0470123A9
S1132B101CE60B4B5A6910705969002301220020EE
S1132B20094CA047012311E600230FE600230DE61C
S1132B3000230BE6002309E6002307E6002305E64D
S1132B4030030020952C0000FD260000FD2C000021
S1132B50AD2D0000B507000010B5012809D00028EC
S1132B6002D002280AD010BD07480430074B98470A
S1132B70F9E705480830054B9847F4E702480C305C
S1132B80024B9847EFE7C046300300209908000045
S1132B9070B50400431E9841C0B20C4A0C490D4B59
S1132BA098470D4B984700280EDB0C4D202200213E
S1132BB028000B4B98476C610A4900200A4CA04737
S1132BC00A490120A047002070BDC04655030000FB
S1132BD00C2F00006D0800003105000030030020B8
S1132BE0BF2D0000E525000095050000D926000052
S1132BF010B5010002481030024B984710BDC04682
S1132C003003002099080000024B987EC30600D5CB
S1132C10102070473003002010B5884211D2037889
S1132C20012B10D9447894420AD0C018814206D9A5
S1132C300378012B09D944789442F6D100E00020AE
S1132C4010BD0020FCE70020FAE70020F8E78842E6
S1132C5015D20378012B14D94278042A13D0052AFB
S1132C600CD0C018814208D90378012B0DD94278C1
S1132C70042A0CD0052AF4D100E00020704700207B
S1132C80FCE70020FAE70020F8E70020F6E7002040
S1132C90F4E7000070B50C0015000222164B9847AB
S1132CA000281DD084421CD90378012B1BD94378FA
S1132CB0022B1AD14379AB4212D0C2781202837824
S1132CC09B189BB2C018844209D90378012B0ED9F2
S1132CD04378022B0DD14379AB42EED100E00020C2
S1132CE070BD0020FCE70020FAE70020F8E7002090
S1132CF0F6E70020F4E7C046192C0000F8B50D00F3
S1132D001700884212D200240A4E03222900B04739
S1132D1000280ED00378012B0AD9A74209D0013428
S1132D20E4B2C0188542F0D8002002E0002000E0A0
S1132D300020F8BD192C000010B504481430044BD1
S1132D4098470020034B984710BDC046500300200D
S1132D50912B0000BD24000010B5014B984710BD15
S1132D60392D000070B500260C4D0D4C641BA410C9
S1132D70A64209D1002600F0D5F80A4D0A4C641B7E
S1132D80A410A64205D170BDB300EB589847013694
S1132D90EEE7B300EB5898470136F2E7302F000016
S1132DA0302F0000302F0000342F0000002310B516
S1132DB09A4200D110BDCC5CC4540133F8E703003F
S1132DC08218934200D1704719700133F9E700006B
S1132DD02E2E2F68616C2F7574696C732F73726358
S1132DE02F7574696C735F6C6973742E63000020B3
S1132DF09402002000000000400000005402002063
S1132E000000000040000000140200200000000048
S1132E1040000000262400006E2300006E23000002
S1132E20E02300006E2300006E2300006E230000E8
S1132E306E2300006E2300006E2300006E2300004A
S1132E406E2300006E2300006E2300006E2300003A
S1132E506E2300006E2300006E2300006422000035
S1132E606E2300006E2300006E2300006E2300001A
S1132E706E2300006E2300006E2300006E2300000A
S1132E80882300006E2300006E23000056230000F8
S1132E906E2300006E2300006E2300006E230000EA
S1132EA06E2300006E230000CE2200006E2300007B
S1132EB06E2300004E2300006E2300004E2300000A
S1132EC010250000182500002825000030250000EA
S1132ED0202500003825000040250000282B000094
S1132EE010280000282B000042280000282B000096
S1132EF066270000282B0000282B0000282B000048
S1132F007A270000282B0000762800002E2E2F752B
S1132F1073622F6465766963652F75736264632ECB
S1132F2063000000F8B5C046F8BC08BC9E46704774
S1132F30DD000000F8B5C046F8BC08BC9E467047EA
S1072F40B5000000D4
S1132F44700000000000000A0000000000000000FF
S1132F54000000005553425300000000000000002C
S1132F6400000000008000011F00000000000000B9
S1132F740000000000000000000000000000000049
S1132F84000000000000000000000000551D0000C7
S9030000FC
