S01200004D792050726F6A6563742E7372656355
S11300002020002025010000210100002101000022
S113001000000000000000000000000000000000DC
S113002000000000000000000000000021010000AA
S11300300000000000000000210100002101000078
S11300402101000021010000210100002101000024
S11300502101000021010000210100002101000014
S11300602101000021010000210100002101000004
S113007021010000210100002101000021010000F4
S113008021010000210100002101000021010000E4
S113009021010000210100002101000021010000D4
S11300A021010000210100002101000021010000C4
S11300B00000000010B5064C2378002B07D1054B37
S11300C0002B02D0044800E000BF0123237010BDC0
S11300D00000002000000000A8030000084B10B539
S11300E0002B03D00749084800E000BF0748036815
S11300F0002B00D110BD064B002BFBD09847F9E72D
S11301000000000004000020A8030000A803000071
S11301100000000010B5014B984710BDD10100004C
S1130120FEE7000010B51A4A1A4B9A4211D01A0081
S1130130194B9A420DD2194A03339B1A9B08013377
S11301409B000022134812498C58845004329A426E
S1130150FAD1134A134B9A420AD2D34311495B187A
S113016003218B4304339B18002102C29342FCD128
S11301700D4AFF210D4B8B4393600D4A53687F3921
S11301800B4353600B4B98470B4B9847FEE7C04615
S1130190A80300000000002000000020040000204C
S11301A0000000202000002000ED00E0000000001E
S11301B000400041410300003503000010B502482F
S11301C0024B984710BDC04610E000E01502000045
S11301D010B50C4B9847C023DB05402294215A509C
S11301E00C395A50084B683208499950C021090605
S11301F09950C6215A5C012082435A54044B9847B3
S113020010BDC04629020000002800404000004004
S1130210BD01000010B5024B1860024B984710BD99
S11302201C0000202103000010B5094B5A685A60D5
S11302300220084B9847084B9847084B9847084BAF
S11302409847084B9847FF20074B984710BDC04676
S113025000400041F7020000A5020000BD020000BA
S113026091020000F50200006D020000C30707D5EB
S1130270044A054B1A621900044A4B681342FCD124
S11302807047C0460601010000180040FD07000049
S1130290034B08229A71043A5A71033A1A7170474F
S11302A000040040044BDA69F82149010A40DA618C
S11302B001221A617047C0460010004082220C4B94
S11302C01A7518003821803A435C1342FCD108495E
S11302D01022CB681A42FCD0054A137D80210B43BF
S11302E01375100048390E22435C1342FCD1704749
S11302F0000C004070478023DB059B7803221340E9
S113030098420CD08022D205FF2393719378032165
S11303108B430840184390709379002BFCD07047AE
S1130320024B034A5A6005221A60704710E000E04D
S1130330FFFFFF0010B5014B9847FEE715010000D1
S113034070B500260C4D0D4C641BA410A64209D1B7
S1130350002600F019F80A4D0A4C641BA410A642AA
S113036005D170BDB300EB5898470136EEE7B300F2
S1130370EB5898470136F2E7940300009403000019
S11303809403000098030000F8B5C046F8BC08BC0C
S11303909E467047DD000000F8B5C046F8BC08BCB6
S10B03A09E467047B500000001
S9030000FC
