S0100000746573745F6C63642E73726563C2
S113000050200020C1070000BD070000BD0700000C
S113001000000000000000000000000000000000DC
S1130020000000000000000000000000BD07000008
S11300300000000000000000BD070000BD07000034
S1130040BD070000BD070000BD070000BD0700009C
S1130050BD070000BD070000BD070000BD0700008C
S1130060BD070000BD070000BD070000BD0700007C
S1130070BD070000BD070000BD070000BD0700006C
S1130080BD070000BD070000BD070000BD0700005C
S1130090BD070000BD070000BD070000BD0700004C
S11300A0BD070000BD070000BD070000BD0700003C
S11300B00000000010B5064C2378002B07D1054B37
S11300C0002B02D0044800E000BF0123237010BDC0
S11300D01000002000000000600C0000084B10B568
S11300E0002B03D00749084800E000BF0748036815
S11300F0002B00D110BD064B002BFBD09847F9E72D
S11301000000000014000020600C0000600C0000DF
S11301100000000070B50020084B98470500084C0B
S1130120FA218900A047074B186007492800A04717
S1130130064B18600522064B1A6070BD7D05000051
S1130140D90900000000002040420F0004000020F4
S113015010E000E030B5084B1C68084A00258021F7
S11301604902013807D3002CFBD054609560136812
S11301700B42FCD0F5E730BD0000002010E000E0A9
S11301800C4B1B68002B06D1EFF31083002B07D018
S11301900022094B1A70074A136801331360704731
S11301A072B6BFF35F8F0022044B1A700132024B08
S11301B01A70F0E72C000020300000200800002016
S11301C0084B1A68013A1A601B68002B09D1064BC8
S11301D01B78002B05D00122044B1A70BFF35F8FEC
S11301E062B670472C000020300000200800002078
S11301F0F0B583B001AC012565700027A7702570A8
S113020021003E20064EB0478022D205054B9A615C
S11302102770657021000F20B04703B0F0BDC046C1
S1130220290200008044004100B583B001AB802264
S11302301A700A785A704A789A708A78DA701900B3
S1130240014B984703B000BD5D07000010B50828B6
S113025003D880001C4B1B589F46002032E01B4BE8
S113026018692FE01A4B1B6A9B059B0F1948D8404D
S113027028E0164B586925E0144B1B6800209B07A7
S113028020D513491022CB681A42FCD00F4B1A68B0
S113029024231340042B01D00F4813E000200F4BFC
S11302A098470A4B9B681B041B0C58430AE05023D5
S11302B0074AD35C00205B0704D5044BD86801E0EF
S11302C08020000210BDC046380B0000340000201E
S11302D00008004000127A00006CDC028106000075
S11302E070B50C490B6A0478857840780122104077
S11302F080014026B34303432A40D2018020834334
S113030013430322224012020348034013430B62A7
S113031070BDC04600080040FFFCFFFF082803D85A
S11303208000254B1B589F46172044E0234A136A3C
S113033002210B43136200203DE0204A936902210D
S11303400B439361002036E01C4A138A02210B43BD
S1130350138200202FE0194A938A02210B439382CF
S1130360002028E016490B68022213430B60134B4C
S11303709A8419000E32CB681A42FCD0104A916854
S11303800E4BD96252689A6200229A841900103284
S1130390CB681A42FCD00A4B1B689BB2074A938471
S11303A0002008E0054944228B5C022003438B545F
S11303B0002000E0002070475C0B000000080040B3
S11303C03400002030B585B0C222D2001A4B9A60A6
S11303D01A4A53681E218B43536001236A461370E3
S11303E00024174DE0B26946A8470134252CF9D101
S11303F003A800244470012585700470114B9847AC
S11304000620114B9847114B9847114B1C725C7294
S11304109C72DC7201956B465C7006236A4613700D
S113042014725472694600200A4B984700200A4B04
S1130430984705B030BDC046000800400040004168
S113044065060000E10200001D0300005D040000D9
S1130450000400408104000039050000064A936945
S113046008210B4393610122044B1A7019000B7885
S11304701342FCD17047C04600040040000C004009
S113048070B5060004000D782D0205434B78002B4F
S113049002D08023DB021D434B7A002B02D0802341
S11304A01B031D434868012810D9431E184234D148
S11304B0022830D90223002201325B009842FBD883
S11304C012023243140080235B031D430B7A002B7A
S11304D002D080239B031D43134A53785BB2002B45
S11304E0FBDB124B9847124B1E700F4A53785BB2DA
S11304F0002BFBDB0C4B9C601A0053785BB2002B87
S1130500FBDB094A5368802149020B401D435560B7
S1130510084B984770BD0022D2E70402344380237D
S11305209B021D43D2E7C046000C0040810100003D
S1130530080C0040C101000010B504000B4A5378B8
S11305405BB2002BFBDB0A4B98470A4B1C70074A33
S113055053785BB2002BFBDB044A516880235B02B7
S11305600B435360044B984710BDC046000C004039
S113057081010000040C0040C101000070B50400BA
S11305801A4A53785BB2002BFBDB194B9847194B83
S11305901C70164A53785BB2002BFBDB134E706859
S11305A0C004C00E144B98470500124B1C707668AB
S11305B0F602F60F114B1C700C4A53785BB2002BF9
S11305C0FBDB0A4B9C682402240C0D4B9847002E3D
S11305D007D1012C07D9210028000A4B98470500B0
S11305E001E00134E540280070BDC046000C004025
S11305F081010000040C00404D020000080C004082
S1130600C1010000D909000010B504000F4B984740
S11306100F4B1C700F4A53881B05180F53880E4943
S11306200B40538053880D490B40538011008022A6
S1130630D2014B881342FCD106494A88030206487A
S1130640024013434B80064B984710BD81010000C4
S1130650020C0040000C0040FFF0FFFFFFBFFFFF53
S1130660C101000010B50C7824020443024B9847E2
S1130670A4B2024B5C8010BD09060000000C0040CF
S113068010B50400064B9847064B1C70064B5C885B
S11306902405240F054B98472000054B984710BDAF
S11306A081010000020C0040000C0040C101000068
S11306B07D05000030B5D378002B35D11378802B1D
S11306C029D01B0680246402234354780225AC43BA
S11306D006D19478002C20D18024A40223434160C5
S11306E05478013C012C1CD90D042D0CA024E405E4
S11306F02C431C4384620D0CD02424062C431C433D
S11307008462D478002C22D15B031CD59378012B0E
S11307101ED0416117E00023D7E7C024E40223433D
S1130720DDE70D4C2340DFE741600C04240CA023DB
S1130730DB05234383620C0CD0231B062343836213
S1130740D378002B03D15378013B012B02D930BD60
S11307508161F8E78160FAE7FFFFFBFF10B50A004B
S1130760C1090023002904D14309DB0105498C4652
S113077063441F242040012181401800024B984704
S113078010BDC04600440041B5060000704700009B
S113079010B5054B9847054B9847054B9847054BB3
S11307A09847054B984710BDC5030000F1010000B0
S11307B08D0700008D0700008D070000FEE7000094
S11307C0F8B52A4A2A4B9A4211D01A00294B9A4268
S11307D00DD2294A03339B1A9B0801339B00002244
S11307E0234822498C58845004329A42FAD1234A2D
S11307F0234B9A420AD2D34321495B1803218B43EA
S113080004339B18002102C29342FCD11D4AFF21EC
S11308101D4B8B439360FD3990235B001B4AD150E1
S11308201B4AD3780325AB4302242343D370D378E4
S11308300C27BB4308263343D370164B987B3022D6
S11308409043202210439873997BB94331439973A1
S11308509A7BAA4322439A730F4A536880210B431D
S113086053600E4B98470E4B9847FEE7600C000010
S113087000000020100000200400002010000020D0
S11308804C00002000ED00E000000000007000417A
S1130890005000410048004100400041F10A0000BE
S11308A01D09000000B583B001A901234B7000228B
S11308B08A700B70C0B2024B984703B000BDC046AB
S11308C02902000030B583B004000D00002A12D1C3
S11308D00F4B9847E1B20023220604D44B09DB01F5
S11308E00C4A944663441F220A4001219140002D82
S11308F00CD1596108E001A900230B7001224A7050
S11309008B70C0B2044B984703B030BD9961FBE7CC
S1130910A50800000044004129020000F0B5D646B5
S11309204F464646C0B5244B9847244B9847244C21
S113093026006036234D01CCA847B442FBD1224B9C
S11309409A461F4B9946214B98460CE0204B1B6856
S11309509B001B4A9858002201211C4B9847FA20FF
S113096040001C4B984700245346E1584B1E9941C4
S1130970C9B200224B46E058C0470434602CF3D17E
S1130980134B1B689B000E4A9858002200210F4B02
S11309909847FA2040000F4B984700240A4F084E0E
S11309A00A4DE1594B425941C9B20022A059A84706
S11309B00434602CF5D1C9E791070000150100004B
S11309C0800B0000A5080000E00B0000C508000033
S11309D00C00002055010000002243088B4274D310
S11309E003098B425FD3030A8B4244D3030B8B422C
S11309F028D3030C8B420DD3FF22090212BA030C35
S1130A008B4202D31212090265D0030B8B4219D315
S1130A1000E0090AC30B8B4201D3CB03C01A524135
S1130A20830B8B4201D38B03C01A5241430B8B427D
S1130A3001D34B03C01A5241030B8B4201D30B0366
S1130A40C01A5241C30A8B4201D3CB02C01A52418D
S1130A50830A8B4201D38B02C01A5241430A8B4250
S1130A6001D34B02C01A5241030A8B4201D30B0239
S1130A70C01A5241CDD2C3098B4201D3CB01C01A53
S1130A80524183098B4201D38B01C01A524143095D
S1130A908B4201D34B01C01A524103098B4201D34B
S1130AA00B01C01A5241C3088B4201D3CB00C01AB8
S1130AB0524183088B4201D38B00C01A5241430830
S1130AC08B4201D34B00C01A5241411A00D2014655
S1130AD0524110467047FFE701B5002000F006F8C8
S1130AE002BDC0460029F7D076E770477047C0467C
S1130AF070B500260C4D0D4C641BA410A64209D100
S1130B00002600F09DF80A4D0A4C641BA410A6426E
S1130B1005D170BDB300EB5898470136EEE7B3003A
S1130B20EB5898470136F2E74C0C00004C0C0000DF
S1130B304C0C0000500C00005E0200005A02000041
S1130B405A020000C0020000C0020000720200004D
S1130B506402000078020000AE02000048030000B6
S1130B602803000028030000B40300003A03000037
S1130B70560300002C03000064030000A4030000DB
S1130B8020000000260000002200000024000000D5
S1130B9021000000290000000500000004000000FE
S1130BA00700000006000000280000000900000003
S1130BB00A000000140000002C0000002E000000B9
S1130BC00B0000002B0000001100000010000000CA
S1130BD013000000120000002A0000002F00000093
S1130BE00000000001000000000000000000000000
S1130BF000000000000000000100000000000000F0
S1130C0000000000010000000100000000000000DE
S1130C1000000000000000000100000001000000CE
S1130C2000000000010000000100000001000000BD
S1130C3000000000010000000100000001000000AD
S1130C40F8B5C046F8BC08BC9E467047DD000000FD
S1130C50F8B5C046F8BC08BC9E467047B500000015
S1130C60401F000008000000010000000B0000000D
S90307C134
