:10000000882000202D0100002901000029010000A6
:1000100000000000000000000000000000000000E0
:1000200000000000000000000000000029010000A6
:10003000000000000000000029010000290100006C
:1000400029010000290100002901000055070000D6
:1000500029010000290100002901000029010000F8
:1000600029010000290100002901000029010000E8
:1000700029010000290100002901000029010000D8
:1000800029010000290100002901000029010000C8
:1000900029010000290100002901000029010000B8
:1000A00029010000290100002901000029010000A8
:1000B0000000000010B5064C2378002B07D1054B3B
:1000C000002B02D0044800E000BF0123237010BDC4
:1000D000000000200000000064130000084B10B571
:1000E000002B03D00749084800E000BF0748036819
:1000F000002B00D110BD064B002BFBD09847F9E731
:1001000000000000040000206413000064130000DD
:100110000000000010B5024B9847024B984710BDF5
:100120004903000089100000FEE7000010B51A4ADC
:100130001A4B9A4211D01A00194B9A420DD2194A01
:1001400003339B1A9B0801339B000022134812497A
:100150008C58845004329A42FAD1134A134B9A4273
:100160000AD2D34311495B1803218B4304339B18F4
:10017000002102C29342FCD10D4AFF210D4B8B435B
:1001800093600D4A53687F390B4353600B4B98477C
:100190000B4B9847FEE7C0466413000000000020A8
:1001A0000000002004000020000000208400002047
:1001B00000ED00E0000000000040004119120000C6
:1001C000A10F0000F0B5D6464F464646C0B54023C5
:1001D0009C464C332D4A6146D1502D4A51697533A6
:1001E000FF330B435361C027FF0520237B60294B5E
:1001F000294A9A62294E9E624525595D04229146FC
:1002000091435955595D0124A14301200143C9B2CD
:10021000595532218846595C0B3292461140454669
:100220005955614679601E4999629E6246218C4605
:10023000595C4A46914365465955595DA14301436E
:10024000C9B2595533215D5CAC460F25A8466546B9
:10025000424695435D5480227A60124F9F629E62AF
:1002600047269F5D4A4697439F559A5DA2430243A6
:10027000D2B29A555A5C554615405D540A4B984780
:100280001CBC90469946A246F0BDC04600180040EE
:10029000000400400028004020000240000002C08E
:1002A00040000240800002408504000070B5124BFF
:1002B000DE20195C042291431954195C0125A943DD
:1002C00001242143C9B219541F38195C0F26B143C8
:1002D0000C3E31431954DF215E5C96435E545A5CF8
:1002E000AA432243D2B25A541A5CD0390A4021316F
:1002F0000A431A5470BDC04600280040064B4021F6
:10030000E02299500331043A9950044A136A413962
:100310000B4313627047C0460018004000040040C1
:1003200010B5044B984704490448054B9847054BC2
:10033000984710BDFD020000000400436400002047
:1003400011050000AD020000F0B5C64600B5274B10
:100350009847C022D20580235B0053619360244BF1
:1003600024499962C0200006986248255C5D0121FD
:100370008C435C558024A400546194601E4C9C62A4
:10038000986201355C5D8C435C558024E4005461C7
:1003900094601A4C9C6298624A24185D88431855F0
:1003A00094278020C003D05188269051A820802413
:1003B000E405A0461C50124C1C50D624A4461C5DDB
:1003C0008C4365465C5580242404D45194514246A4
:1003D0001A500C4A1A502F301A5C8A431A540A4B8E
:1003E00098470A4B984704BC9046F0BD5906000058
:1003F00000280040000100400002004000040040CE
:10040000400000C0800000C0C501000021030000C2
:1004100010B5044B1C68044B984701002000034BA7
:10042000984710BD1C000020310600005106000056
:10043000F8B5134BD968884205D001220327002460
:10044000FF261D0016E00123DB000D4A9B58002B00
:1004500000D09847F8BD013AD7B2A742FAD33B196A
:100460005B10DAB2022AF5D83340D900691849681E
:100470008142E9D08842EED90132D4B2EDE7C046DC
:100480002000002010B5074B01214942596000228D
:100490001A60D9609A6059611A610348034B984702
:1004A00010BDC04620000020310400009D06000061
:1004B00010B584B0140001AB1438828B1A800294FA
:1004C000054A5A8003911900044B9847002800D12F
:1004D000200004B010BDC0460080FFFF290A0000C4
:1004E00010B584B0140001AB1438828B1A800294CA
:1004F000054A5A8003911900044B9847002800D1FF
:10050000200004B010BDC0460180FFFF290A000092
:1005100070B504000D00431E9841C0B25E22074929
:10052000074B984729002000064B9847002803D125
:10053000054BA361054B636170BDC04660120000AE
:1005400051050000F9090000E1040000B1040000B9
:10055000002800D100BE7047F8B505001700CE088E
:1005600007230B4001249C40E4B200281FD0002A3E
:100570001FD0002007238B42404131221349144BE6
:100580009847AB191B7923421CD129001148124B03
:10059000984700280FD0AF60AD192B7923432B71FA
:1005A0000C4B9B191A7914431C710020F8BD0020D4
:1005B000E3E70020E1E700232B7129000548074B02
:1005C0009847E8E702204042F0E7C0467C1200006E
:1005D0005105000038000020E1050000050600007C
:1005E0000368002B0AD08B420AD01B68002B03D073
:1005F0009942FAD1012000E0002070470020FCE77A
:100600000120FAE770B504000D00064B984701235E
:100610005840C0B239220449044B984723682B60E4
:10062000256070BDE10500009C120000510500002E
:1006300010B50300C8204000584302300321034B8B
:10064000984703008000C018400010BDAD100000A6
:100650000139FDD87047000010B5094B5A685A603F
:100660000220084B9847084B9847084B9847084B7F
:100670009847084B9847FF20074B984710BDC04646
:1006800000400041BF0800006D0800008508000020
:1006900059080000BD08000035080000294B5B68C0
:1006A000DB071FD4274903224B681A42FCD1254B94
:1006B0001B789B070ED5234A137802218B431370B6
:1006C000110003224B681A42FCD11E4902224B68DA
:1006D0001A42FCD101221B4B1A70190002324B68DE
:1006E0001A42FCD1174901224B681A42FCD1154A23
:1006F000137810218B431370110003224B681A42A8
:10070000FCD1104B00225A709A600F49D9611A62CD
:100710001A7802210A431A70190003224B681A4200
:10072000FCD10A4B082280215A50BFF34F8FBFF3F0
:100730006F8F0131FF315A501A60054B186000204D
:100740007047C046002400400000101100E100E0A6
:1007500040000020F0B5CE46474680B583B02F4B11
:100760005A690192019A5A612D4B1868431E9841AB
:10077000C0B2D1222B492C4B9847019B002B48D06B
:1007800001235B429946294D39E04346DB00274A65
:10079000D3185B6899464B46013303D0204B1B6846
:1007A00048469847019B4246A240934301930198D3
:1007B0001F4B9847013844B2631C18D0062CE4D074
:1007C0000621424600270320FF260BE0013AD0B263
:1007D0008742E0D8C3195B10DAB23340D900495DD3
:1007E000A142D3D08C42F1DD0132D7B2F0E70B4BFE
:1007F0005A690192019A5A61019B002B09D0019814
:100800000B4B9847013844B201239846631CD5D15D
:10081000EDE703B00CBC90469946F0BD00240040C3
:1008200040000020D412000051050000BC1200005E
:10083000C5110000C30707D5044A054B1A62190009
:10084000044A4B681342FCD17047C04606010100C0
:1008500000180040FD070000034B08229A71043A7B
:100860005A71033A1A71704700040040044BDA6968
:10087000F82149010A40DA6101221A617047C04635
:100880000010004082220C4B1A7518003821803A63
:10089000435C1342FCD108491022CB681A42FCD0B9
:1008A000054A137D80210B431375100048390E2231
:1008B000435C1342FCD17047000C0040704780231A
:1008C000DB059B780322134098420CD08022D2058E
:1008D000FF239371937803218B4308401843907052
:1008E0009379002BFCD0704710B5084A0023904242
:1008F0000AD08003000E052806D0054A05490020CD
:10090000054B984701235B42180010BD00040043CB
:100910009B030000041300005105000070B50500A2
:100920000C000800314B9847C0B2E369DB0721D4C3
:1009300043001B18DB002E4AD31859681C231940AA
:100940000322E3691A42FCD123689B070BD5236875
:100950000222934323600132E3691A42FCD102224E
:10096000E3691A42FCD101230B4323600322E369AC
:100970001A42FCD10122E3691A42FCD143001B1840
:10098000DB001B4AD318596821600322E3691A422D
:10099000FCD143001B18DB00154AD3189B68636029
:1009A0000422E3691A42FCD143001B18DB00104A01
:1009B000D318DB68E3608901890FA981636A0D4E52
:1009C0001E4001238B429B415B429B033343636286
:1009D0000422E3691A42FCD143001818C000044BFA
:1009E0001818438AEB81002070BDC046E90800005A
:1009F000EC120000FFBFFFFF70B504000D00431EA6
:100A00009841C0B2044A0549054B98472561290021
:100A10002000044B984770BD0A0500000413000035
:100A2000510500001D090000F0B5DE4657464E4650
:100A30004546E0B583B00500884604690600731E8C
:100A40009E41F3B20193B34FB34A39001800B34E3D
:100A5000B0472869431E9841C0B2B14A3900B04737
:100A60004046431E9841C0B2AE4A3900B0476B8839
:100A7000DB0500D525E243465A8880235B001A43F4
:100A800041464A802A00C1C9C1C2626813436360FB
:100A90000422E3691A42FCD12F693B689946A24AB5
:100AA0009C4901989D4B98476B68012B5AD07B68F5
:100AB0009E4A13407B600422FB691A42FCD12B88BA
:100AC0005A055CD56A88D20704D56A888021C90096
:100AD0000A436A805B00964919400422FB691A4266
:100AE000FCD17B6A8022D2011A4080231B0213436F
:100AF000194379620422FB691A42FCD129690B7EF1
:100B0000DBB28C4A0320184204D10B7EDBB2013ADF
:100B1000002AF8D13E680421FA691142FCD17A8B8F
:100B200092B2D90700D4A0E093073ED501233B76CB
:100B30006B88802149010B436B806B887E490B4099
:100B40006B800120030013405842584105386B88E0
:100B5000794A13406B8003B03CBC90469946A2464C
:100B6000AB46F0BD4B461B01A1D57A688023DB0262
:100B700013437B600422FB691A42FCD19FE76A8819
:100B80005B00FF210B40FE39114019430422FB6931
:100B90001A42FCD17B6A8022D20113400B437B6254
:100BA0000422FB691A42FCD1A8E753071BD46B88C7
:100BB0005B0535D52B88DB09062119400422FB692A
:100BC0001A42FCD17B6A8022D2011340F1221343E6
:100BD0000B437B62ED3AFB691A42FCD16B88574AA2
:100BE00013406B8066E06B68002B04DD6B8880220D
:100BF000520113436B806B881BB2002B06DB6B88A2
:100C00004D4A13406B8002204042A0E77A68C0231F
:100C10009B0213437B600423FA691342FCD1EEE785
:100C20006B68002B12D16B881BB2002B04DB6B8826
:100C3000414A13406B803DE07A68C0239B02134316
:100C40007B600422FB691A42FCD1F0E7AB681A789A
:100C50002823FA540422FB691A42FCD1AB68013301
:100C6000AB606B68013B6B6024E09B0722D56B682F
:100C7000002B40D052073ED43601F60F013B6B608B
:100C8000002B00D020E1002E00D123E16B881BB2A5
:100C9000002B1DDB6B88284A13406B80A9684B1C16
:100CA000AB600422FB691A42FCD12823FB5C0B7069
:100CB00002233B76002680235B009A460321042210
:100CC000FF3B9C460133994626339B460196C3E081
:100CD0007B68194A13407B600632FF32FB691A4277
:100CE000FCD17A68C0239B0213437B600422FB691A
:100CF0001A42FCD1CEE702233B760220404226E78F
:100D00006268C0239B02134363600422E3691A42B2
:100D1000FCD1B6E004130000C2050000510500003C
:100D2000C3050000C405000097050000FFFFFBFF9E
:100D3000FE070000FFFF0000FFFEFFFFFFFBFFFFBD
:100D400002421BD16B885B0535D52B88DB09062059
:100D50001840E3691A42FCD1636A8026F6013340E9
:100D6000F126334303436362E3691A42FCD16B8883
:100D7000784803406B80002301936DE06B68002B83
:100D800004DD6B888020400103436B806B881BB2BD
:100D9000002B07DB6B88704803406B8002235B42AB
:100DA000019359E06068C0239B0203436360E369D9
:100DB0001A42FCD1EEE76B68002B13D16B881BB293
:100DC000002B06DB6B88644803406B800023019393
:100DD00042E06068C0239B0203436360E3691A42F8
:100DE000FCD1EFE7AB681B7858462354E3691A42FD
:100DF000FCD1AB680133AB606B68013B6B600023D7
:100E0000019329E0002601964E461E4224D06B68CD
:100E1000002B4DD002424BD1FF0E60460740013BF4
:100E20006B60002B00D082E0002F00D185E06B8842
:100E30001BB2002B2CDB6B88474803406B80A868F3
:100E4000431CAB60E3691A42FCD15B46E35C037070
:100E50004B462376002301936B88504603422DD0E6
:100E60002E69337EDBB23D48194241D1337EDBB27D
:100E700001380028F8D143465B881BB2002B00DA0A
:100E80003EE76B88344A13406B800520404262E69F
:100E90006368314803406360E3691A42FCD16068CB
:100EA000C0239B0203436360E3691A42FCD1C2E79B
:100EB0004B46237602235B420193CDE7019E30002F
:100EC00049E60620404246E6012B00D0E6E6002E29
:100ED00000D1E3E67A688023DB0213437B600422BF
:100EE000FB691A42FCD16B68002B00D1CEE6D5E637
:100EF0002768E0690242FCD1608B80B266461E42E0
:100F000000D17FE74B46034200D119E726766B8874
:100F10008026760133436B806B880F4E33406B80A5
:100F20006346184046424641731F019394E7012BE4
:100F300000D084E7002F00D181E760688023DB02C6
:100F400003436360E3691A42FCD16B68002B00D154
:100F50006DE774E7FFFBFFFFFFFEFFFFFFFF0000F1
:100F6000F8B5CE46474680B5C024E4059823994697
:100F7000094B98468027FF034B46E750942680256F
:100F80002D04A551FA204000C047A7514B46E5501B
:100F90000248C047EEE7C04611040000DC0500002F
:100FA00010B5024B9847024B9847C0461501000008
:100FB000610F0000F0B583B0002815D10E00184B6A
:100FC0001C68002C0ED001AD012773786B702F7058
:100FD00028006368984732782B7813403370246870
:100FE000002CF2D103B0F0BD02280DD00128F9D1B8
:100FF0000B4B9C68002CF5D0CEB23000636898474C
:101000002468002CF9D1EDE7054B5C68002CE9D091
:10101000CEB23000636898472468002CF9D1E1E72C
:101020004400002070B5084E084C0C3432000121F9
:101030002000074DA847320000212000A8473200B9
:1010400002212000A84770BDB50F00004400002019
:101050005905000010B50400431E9841C0B240225B
:101060000349044B984721000348044B984710BD9F
:101070002013000051050000440000200506000078
:10108000002303707047000010B5044B98470448D4
:10109000044B4360044B984710BDC0462510000028
:1010A0005C00002081100000551000000022430861
:1010B0008B4274D303098B425FD3030A8B4244D320
:1010C000030B8B4228D3030C8B420DD3FF22090262
:1010D00012BA030C8B4202D31212090265D0030B21
:1010E0008B4219D300E0090AC30B8B4201D3CB0317
:1010F000C01A5241830B8B4201D38B03C01A524159
:10110000430B8B4201D34B03C01A5241030B8B425A
:1011100001D30B03C01A5241C30A8B4201D3CB0245
:10112000C01A5241830A8B4201D38B02C01A52412A
:10113000430A8B4201D34B02C01A5241030A8B422D
:1011400001D30B02C01A5241CDD2C3098B4201D345
:10115000CB01C01A524183098B4201D38B01C01AC3
:10116000524143098B4201D34B01C01A524103093A
:101170008B4201D30B01C01A5241C3088B4201D3E9
:10118000CB00C01A524183088B4201D38B00C01A96
:10119000524143088B4201D34B00C01A5241411ABD
:1011A00000D20146524110467047FFE701B50020CA
:1011B00000F006F802BDC0460029F7D076E7704778
:1011C0007047C04610B50023002802D000F004F894
:1011D000431C180010BDC046414208401C21012399
:1011E0001B04984201D3000C10391B0A984201D30A
:1011F000000A08391B09984201D30009043902A2E8
:10120000105C401A7047C0461B1C1D1D1E1E1E1E72
:101210001F1F1F1F1F1F1F1F70B500260C4D0D4CD9
:10122000641BA410A64209D1002600F08BF80A4DD9
:101230000A4C641BA410A64205D170BDB300EB5844
:1012400098470136EEE7B300EB5898470136F2E7CE
:1012500050130000501300005013000054130000FE
:101260002E2E2F68616C2F7372632F68616C5F691B
:1012700032635F6D5F73796E632E63002E2E2F686D
:10128000616C2F7574696C732F7372632F75746939
:101290006C735F6576656E742E6300002E2E2F686A
:1012A000616C2F7574696C732F7372632F75746919
:1012B0006C735F6C6973742E63000000050000009E
:1012C0000500000006000000060000000700000006
:1012D000070000002E2E2F68706C2F6569632F6841
:1012E000706C5F6569632E630000000005000000FC
:1012F00014002000000100000E0F00000000D700C5
:1013000000093D002E2E2F68706C2F736572636F7D
:101310006D2F68706C5F736572636F6D2E63000074
:101320002E2E2F736C6565705F6D616E61676572DF
:101330002F736C6565705F6D616E616765722E639A
:1013400000000000F8B5C046F8BC08BC9E467047D7
:10135000DD000000F8B5C046F8BC08BC9E467047EA
:04136000B5000000D4
:00000001FF
